{
  "contractName": "Apartments",
  "abi": [
    {
      "inputs": [],
      "stateMutability": "nonpayable",
      "type": "constructor"
    },
    {
      "inputs": [],
      "name": "contractOwnerAddress",
      "outputs": [
        {
          "internalType": "address",
          "name": "",
          "type": "address"
        }
      ],
      "stateMutability": "view",
      "type": "function",
      "constant": true
    },
    {
      "inputs": [],
      "name": "initiate_ids",
      "outputs": [],
      "stateMutability": "nonpayable",
      "type": "function"
    },
    {
      "inputs": [
        {
          "internalType": "string",
          "name": "_apartment_name",
          "type": "string"
        },
        {
          "internalType": "string",
          "name": "_door_number",
          "type": "string"
        },
        {
          "internalType": "string",
          "name": "_street",
          "type": "string"
        },
        {
          "internalType": "string",
          "name": "_locality",
          "type": "string"
        },
        {
          "internalType": "string",
          "name": "_postal_code",
          "type": "string"
        },
        {
          "internalType": "string",
          "name": "_created_date",
          "type": "string"
        }
      ],
      "name": "createApartment",
      "outputs": [],
      "stateMutability": "nonpayable",
      "type": "function"
    },
    {
      "inputs": [
        {
          "internalType": "uint256",
          "name": "_apartment_id",
          "type": "uint256"
        },
        {
          "internalType": "uint256",
          "name": "_unit_number",
          "type": "uint256"
        },
        {
          "internalType": "uint128",
          "name": "_floor",
          "type": "uint128"
        },
        {
          "internalType": "string",
          "name": "_direction",
          "type": "string"
        },
        {
          "internalType": "uint256",
          "name": "_monthly_rent",
          "type": "uint256"
        },
        {
          "internalType": "uint256",
          "name": "_sqft",
          "type": "uint256"
        },
        {
          "internalType": "uint128",
          "name": "_bed_rooms",
          "type": "uint128"
        },
        {
          "internalType": "uint128",
          "name": "_bath_rooms",
          "type": "uint128"
        },
        {
          "internalType": "bool",
          "name": "_maintainance",
          "type": "bool"
        },
        {
          "internalType": "bool",
          "name": "_rented",
          "type": "bool"
        },
        {
          "internalType": "address",
          "name": "_current_tenent_address",
          "type": "address"
        }
      ],
      "name": "createUnit",
      "outputs": [],
      "stateMutability": "nonpayable",
      "type": "function"
    },
    {
      "inputs": [
        {
          "internalType": "uint256",
          "name": "_apartment_id",
          "type": "uint256"
        },
        {
          "internalType": "uint256",
          "name": "_unit_id",
          "type": "uint256"
        },
        {
          "internalType": "address payable",
          "name": "_new_owner",
          "type": "address"
        }
      ],
      "name": "AssignUnitOwner",
      "outputs": [],
      "stateMutability": "nonpayable",
      "type": "function"
    },
    {
      "inputs": [
        {
          "internalType": "uint256",
          "name": "_apartment_id",
          "type": "uint256"
        },
        {
          "internalType": "uint256",
          "name": "_unit_id",
          "type": "uint256"
        },
        {
          "internalType": "address",
          "name": "_tenant_address",
          "type": "address"
        },
        {
          "internalType": "address",
          "name": "_unit_owner",
          "type": "address"
        },
        {
          "internalType": "uint256",
          "name": "_advance_payment",
          "type": "uint256"
        },
        {
          "internalType": "string",
          "name": "_start_date",
          "type": "string"
        },
        {
          "internalType": "string",
          "name": "_end_date",
          "type": "string"
        },
        {
          "internalType": "string",
          "name": "_contract_timestamp",
          "type": "string"
        }
      ],
      "name": "AssignTenant",
      "outputs": [],
      "stateMutability": "nonpayable",
      "type": "function"
    },
    {
      "inputs": [
        {
          "internalType": "uint256",
          "name": "_apartment_id",
          "type": "uint256"
        },
        {
          "internalType": "uint256",
          "name": "_unit_id",
          "type": "uint256"
        }
      ],
      "name": "vacateTenant",
      "outputs": [],
      "stateMutability": "nonpayable",
      "type": "function"
    },
    {
      "inputs": [
        {
          "internalType": "uint256",
          "name": "_apartment_id",
          "type": "uint256"
        },
        {
          "internalType": "uint256",
          "name": "_unit_id",
          "type": "uint256"
        },
        {
          "internalType": "uint256",
          "name": "_year",
          "type": "uint256"
        },
        {
          "internalType": "string",
          "name": "_month",
          "type": "string"
        },
        {
          "internalType": "uint256",
          "name": "_total_rent",
          "type": "uint256"
        },
        {
          "internalType": "uint256",
          "name": "_paid_ammount",
          "type": "uint256"
        },
        {
          "internalType": "string",
          "name": "_payment_timestamp",
          "type": "string"
        }
      ],
      "name": "payRent",
      "outputs": [],
      "stateMutability": "payable",
      "type": "function",
      "payable": true
    },
    {
      "inputs": [
        {
          "internalType": "uint256",
          "name": "_unit_id",
          "type": "uint256"
        }
      ],
      "name": "unitMaintainanceClose",
      "outputs": [],
      "stateMutability": "nonpayable",
      "type": "function"
    },
    {
      "inputs": [
        {
          "internalType": "uint256",
          "name": "_unit_id",
          "type": "uint256"
        }
      ],
      "name": "unitMaintainanceOpen",
      "outputs": [],
      "stateMutability": "nonpayable",
      "type": "function"
    },
    {
      "inputs": [],
      "name": "getApartments",
      "outputs": [
        {
          "components": [
            {
              "internalType": "string",
              "name": "apartment_name",
              "type": "string"
            },
            {
              "internalType": "string",
              "name": "door_number",
              "type": "string"
            },
            {
              "internalType": "string",
              "name": "street",
              "type": "string"
            },
            {
              "internalType": "string",
              "name": "locality",
              "type": "string"
            },
            {
              "internalType": "string",
              "name": "postal_code",
              "type": "string"
            },
            {
              "internalType": "address payable",
              "name": "apartment_owner",
              "type": "address"
            },
            {
              "components": [
                {
                  "internalType": "uint256",
                  "name": "unit_id",
                  "type": "uint256"
                },
                {
                  "internalType": "uint256",
                  "name": "apartment_id",
                  "type": "uint256"
                },
                {
                  "internalType": "uint256",
                  "name": "unit_number",
                  "type": "uint256"
                },
                {
                  "internalType": "address payable",
                  "name": "unit_owner",
                  "type": "address"
                },
                {
                  "internalType": "uint128",
                  "name": "floor",
                  "type": "uint128"
                },
                {
                  "internalType": "string",
                  "name": "direction",
                  "type": "string"
                },
                {
                  "internalType": "uint256",
                  "name": "monthly_rent",
                  "type": "uint256"
                },
                {
                  "internalType": "uint256",
                  "name": "sqft",
                  "type": "uint256"
                },
                {
                  "internalType": "uint128",
                  "name": "bed_rooms",
                  "type": "uint128"
                },
                {
                  "internalType": "uint128",
                  "name": "bath_rooms",
                  "type": "uint128"
                },
                {
                  "internalType": "bool",
                  "name": "maintainance",
                  "type": "bool"
                },
                {
                  "internalType": "bool",
                  "name": "rented",
                  "type": "bool"
                },
                {
                  "internalType": "address",
                  "name": "current_tenent_address",
                  "type": "address"
                }
              ],
              "internalType": "struct Apartments.unit[]",
              "name": "unit_bundle",
              "type": "tuple[]"
            }
          ],
          "internalType": "struct Apartments.apartment_bundle[]",
          "name": "",
          "type": "tuple[]"
        }
      ],
      "stateMutability": "view",
      "type": "function",
      "constant": true
    },
    {
      "inputs": [
        {
          "internalType": "uint256",
          "name": "_apartment_id",
          "type": "uint256"
        }
      ],
      "name": "getApartmentUnits",
      "outputs": [
        {
          "components": [
            {
              "internalType": "uint256",
              "name": "unit_id",
              "type": "uint256"
            },
            {
              "internalType": "uint256",
              "name": "apartment_id",
              "type": "uint256"
            },
            {
              "internalType": "uint256",
              "name": "unit_number",
              "type": "uint256"
            },
            {
              "internalType": "address payable",
              "name": "unit_owner",
              "type": "address"
            },
            {
              "internalType": "uint128",
              "name": "floor",
              "type": "uint128"
            },
            {
              "internalType": "string",
              "name": "direction",
              "type": "string"
            },
            {
              "internalType": "uint256",
              "name": "monthly_rent",
              "type": "uint256"
            },
            {
              "internalType": "uint256",
              "name": "sqft",
              "type": "uint256"
            },
            {
              "internalType": "uint128",
              "name": "bed_rooms",
              "type": "uint128"
            },
            {
              "internalType": "uint128",
              "name": "bath_rooms",
              "type": "uint128"
            },
            {
              "internalType": "bool",
              "name": "maintainance",
              "type": "bool"
            },
            {
              "internalType": "bool",
              "name": "rented",
              "type": "bool"
            },
            {
              "internalType": "address",
              "name": "current_tenent_address",
              "type": "address"
            }
          ],
          "internalType": "struct Apartments.unit[]",
          "name": "",
          "type": "tuple[]"
        }
      ],
      "stateMutability": "view",
      "type": "function",
      "constant": true
    },
    {
      "inputs": [
        {
          "internalType": "address",
          "name": "_owner",
          "type": "address"
        }
      ],
      "name": "myApartments",
      "outputs": [
        {
          "components": [
            {
              "internalType": "uint256",
              "name": "apartment_id",
              "type": "uint256"
            },
            {
              "internalType": "string",
              "name": "apartment_name",
              "type": "string"
            },
            {
              "internalType": "string",
              "name": "door_number",
              "type": "string"
            },
            {
              "internalType": "string",
              "name": "street",
              "type": "string"
            },
            {
              "internalType": "string",
              "name": "locality",
              "type": "string"
            },
            {
              "internalType": "string",
              "name": "postal_code",
              "type": "string"
            },
            {
              "internalType": "address payable",
              "name": "apartment_owner",
              "type": "address"
            },
            {
              "internalType": "string",
              "name": "created_date",
              "type": "string"
            }
          ],
          "internalType": "struct Apartments.Apartment[]",
          "name": "",
          "type": "tuple[]"
        }
      ],
      "stateMutability": "view",
      "type": "function",
      "constant": true
    },
    {
      "inputs": [
        {
          "internalType": "address payable",
          "name": "_owner",
          "type": "address"
        }
      ],
      "name": "myUnits",
      "outputs": [
        {
          "components": [
            {
              "internalType": "uint256",
              "name": "unit_id",
              "type": "uint256"
            },
            {
              "internalType": "uint256",
              "name": "apartment_id",
              "type": "uint256"
            },
            {
              "internalType": "uint256",
              "name": "unit_number",
              "type": "uint256"
            },
            {
              "internalType": "address payable",
              "name": "unit_owner",
              "type": "address"
            },
            {
              "internalType": "uint128",
              "name": "floor",
              "type": "uint128"
            },
            {
              "internalType": "string",
              "name": "direction",
              "type": "string"
            },
            {
              "internalType": "uint256",
              "name": "monthly_rent",
              "type": "uint256"
            },
            {
              "internalType": "uint256",
              "name": "sqft",
              "type": "uint256"
            },
            {
              "internalType": "uint128",
              "name": "bed_rooms",
              "type": "uint128"
            },
            {
              "internalType": "uint128",
              "name": "bath_rooms",
              "type": "uint128"
            },
            {
              "internalType": "bool",
              "name": "maintainance",
              "type": "bool"
            },
            {
              "internalType": "bool",
              "name": "rented",
              "type": "bool"
            },
            {
              "internalType": "address",
              "name": "current_tenent_address",
              "type": "address"
            }
          ],
          "internalType": "struct Apartments.unit[]",
          "name": "",
          "type": "tuple[]"
        }
      ],
      "stateMutability": "view",
      "type": "function",
      "constant": true
    },
    {
      "inputs": [
        {
          "internalType": "uint256",
          "name": "_unit_id",
          "type": "uint256"
        }
      ],
      "name": "myUnitsRentHistory",
      "outputs": [
        {
          "components": [
            {
              "internalType": "uint256",
              "name": "payment_id",
              "type": "uint256"
            },
            {
              "internalType": "uint256",
              "name": "contract_id",
              "type": "uint256"
            },
            {
              "internalType": "uint256",
              "name": "year",
              "type": "uint256"
            },
            {
              "internalType": "string",
              "name": "month",
              "type": "string"
            },
            {
              "internalType": "uint256",
              "name": "total_rent",
              "type": "uint256"
            },
            {
              "internalType": "uint256",
              "name": "paid_ammount",
              "type": "uint256"
            },
            {
              "internalType": "string",
              "name": "payment_timestamp",
              "type": "string"
            }
          ],
          "internalType": "struct Apartments.rent_payment[]",
          "name": "",
          "type": "tuple[]"
        }
      ],
      "stateMutability": "view",
      "type": "function",
      "constant": true
    },
    {
      "inputs": [
        {
          "internalType": "address",
          "name": "_tenant",
          "type": "address"
        }
      ],
      "name": "myRentedUnits",
      "outputs": [
        {
          "components": [
            {
              "internalType": "uint256",
              "name": "unit_id",
              "type": "uint256"
            },
            {
              "internalType": "uint256",
              "name": "apartment_id",
              "type": "uint256"
            },
            {
              "internalType": "uint256",
              "name": "unit_number",
              "type": "uint256"
            },
            {
              "internalType": "address payable",
              "name": "unit_owner",
              "type": "address"
            },
            {
              "internalType": "uint128",
              "name": "floor",
              "type": "uint128"
            },
            {
              "internalType": "string",
              "name": "direction",
              "type": "string"
            },
            {
              "internalType": "uint256",
              "name": "monthly_rent",
              "type": "uint256"
            },
            {
              "internalType": "uint256",
              "name": "sqft",
              "type": "uint256"
            },
            {
              "internalType": "uint128",
              "name": "bed_rooms",
              "type": "uint128"
            },
            {
              "internalType": "uint128",
              "name": "bath_rooms",
              "type": "uint128"
            },
            {
              "internalType": "bool",
              "name": "maintainance",
              "type": "bool"
            },
            {
              "internalType": "bool",
              "name": "rented",
              "type": "bool"
            },
            {
              "internalType": "address",
              "name": "current_tenent_address",
              "type": "address"
            }
          ],
          "internalType": "struct Apartments.unit[]",
          "name": "",
          "type": "tuple[]"
        }
      ],
      "stateMutability": "view",
      "type": "function",
      "constant": true
    },
    {
      "inputs": [
        {
          "internalType": "uint256",
          "name": "_unit_id",
          "type": "uint256"
        },
        {
          "internalType": "address",
          "name": "_unit_owner",
          "type": "address"
        },
        {
          "internalType": "uint256",
          "name": "_advance_payment",
          "type": "uint256"
        },
        {
          "internalType": "string",
          "name": "_start_date",
          "type": "string"
        },
        {
          "internalType": "string",
          "name": "_end_date",
          "type": "string"
        },
        {
          "internalType": "string",
          "name": "_contract_timestamp",
          "type": "string"
        }
      ],
      "name": "clickToRent",
      "outputs": [],
      "stateMutability": "payable",
      "type": "function",
      "payable": true
    },
    {
      "inputs": [
        {
          "internalType": "uint256",
          "name": "_unit_id",
          "type": "uint256"
        }
      ],
      "name": "returnAdvance",
      "outputs": [],
      "stateMutability": "nonpayable",
      "type": "function"
    },
    {
      "inputs": [
        {
          "internalType": "address",
          "name": "_address",
          "type": "address"
        },
        {
          "internalType": "uint256",
          "name": "_apartment_id",
          "type": "uint256"
        }
      ],
      "name": "checkApartmentOwnership",
      "outputs": [
        {
          "internalType": "bool",
          "name": "",
          "type": "bool"
        }
      ],
      "stateMutability": "view",
      "type": "function",
      "constant": true
    },
    {
      "inputs": [
        {
          "internalType": "uint256",
          "name": "_unit_id",
          "type": "uint256"
        },
        {
          "internalType": "address",
          "name": "_tenant_address",
          "type": "address"
        }
      ],
      "name": "getContract",
      "outputs": [
        {
          "internalType": "int256",
          "name": "",
          "type": "int256"
        }
      ],
      "stateMutability": "view",
      "type": "function",
      "constant": true
    },
    {
      "inputs": [
        {
          "internalType": "uint256",
          "name": "_unit_id",
          "type": "uint256"
        }
      ],
      "name": "getCurrentContract",
      "outputs": [
        {
          "internalType": "uint256",
          "name": "",
          "type": "uint256"
        }
      ],
      "stateMutability": "view",
      "type": "function",
      "constant": true
    },
    {
      "inputs": [
        {
          "internalType": "uint256",
          "name": "_apartment_id",
          "type": "uint256"
        }
      ],
      "name": "getApartmentOwner",
      "outputs": [
        {
          "internalType": "address payable",
          "name": "",
          "type": "address"
        }
      ],
      "stateMutability": "view",
      "type": "function",
      "constant": true
    },
    {
      "inputs": [
        {
          "internalType": "address",
          "name": "_address",
          "type": "address"
        },
        {
          "internalType": "uint256",
          "name": "_unit_id",
          "type": "uint256"
        }
      ],
      "name": "checkUnitOwnership",
      "outputs": [
        {
          "internalType": "bool",
          "name": "",
          "type": "bool"
        }
      ],
      "stateMutability": "view",
      "type": "function",
      "constant": true
    },
    {
      "inputs": [
        {
          "internalType": "uint256",
          "name": "_unit_id",
          "type": "uint256"
        }
      ],
      "name": "indexOfUnit",
      "outputs": [
        {
          "internalType": "int256",
          "name": "",
          "type": "int256"
        }
      ],
      "stateMutability": "view",
      "type": "function",
      "constant": true
    },
    {
      "inputs": [
        {
          "internalType": "uint256",
          "name": "_id",
          "type": "uint256"
        },
        {
          "internalType": "uint256",
          "name": "_type",
          "type": "uint256"
        },
        {
          "internalType": "address",
          "name": "_person",
          "type": "address"
        }
      ],
      "name": "distinctOwnership",
      "outputs": [],
      "stateMutability": "nonpayable",
      "type": "function"
    }
  ],
  "bytecode": "0x60806040523480156200001157600080fd5b50336000806101000a81548173ffffffffffffffffffffffffffffffffffffffff021916908373ffffffffffffffffffffffffffffffffffffffff160217905550620000626200006860201b60201c565b6200008a565b6000600181905550600060028190555060006003819055506000600481905550565b615abd806200009a6000396000f3fe6080604052600436106101665760003560e01c80638d558cc1116100d1578063b80b80a01161008a578063d425d9cc11610064578063d425d9cc1461056e578063db8306e7146105ab578063e5b1202c146105c7578063e7a67c82146105e357610166565b8063b80b80a0146104ef578063cb44c5f314610506578063cbdcef411461053157610166565b80638d558cc1146103cf578063a08e4fb31461040c578063b02d5aad14610435578063b1c980991461045e578063b34f508614610489578063b4ba99ee146104c657610166565b80633639b9b0116101235780633639b9b0146102b15780635f39eacc146102ee5780635fdfb1dc1461032b5780636ccfe32d1461035457806375e9a4051461037d57806383bf9393146103a657610166565b806302e4bbd91461016b57806309a30af9146101945780630c0d086f146101bd578063137255c9146101fa578063242f6db21461023757806331cd74fe14610274575b600080fd5b34801561017757600080fd5b50610192600480360361018d91908101906145cf565b610620565b005b3480156101a057600080fd5b506101bb60048036036101b69190810190614705565b610799565b005b3480156101c957600080fd5b506101e460048036036101df9190810190614451565b610a15565b6040516101f191906155cb565b60405180910390f35b34801561020657600080fd5b50610221600480360361021c919081019061447a565b610e64565b60405161022e91906155ed565b60405180910390f35b34801561024357600080fd5b5061025e60048036036102599190810190614428565b610ee8565b60405161026b9190615565565b60405180910390f35b34801561028057600080fd5b5061029b6004803603610296919081019061447a565b611517565b6040516102a891906155ed565b60405180910390f35b3480156102bd57600080fd5b506102d860048036036102d391908101906145f8565b61162c565b6040516102e59190615608565b60405180910390f35b3480156102fa57600080fd5b50610315600480360361031091908101906145cf565b611761565b60405161032291906155cb565b60405180910390f35b34801561033757600080fd5b50610352600480360361034d9190810190614790565b611b7d565b005b34801561036057600080fd5b5061037b600480360361037691908101906144b6565b611c88565b005b34801561038957600080fd5b506103a4600480360361039f91908101906145cf565b611e96565b005b3480156103b257600080fd5b506103cd60048036036103c891908101906145cf565b611fd0565b005b3480156103db57600080fd5b506103f660048036036103f191908101906145cf565b6121e3565b604051610403919061554a565b60405180910390f35b34801561041857600080fd5b50610433600480360361042e91908101906148d9565b6122af565b005b34801561044157600080fd5b5061045c600480360361045791908101906147df565b612659565b005b34801561046a57600080fd5b50610473612a39565b6040516104809190615587565b60405180910390f35b34801561049557600080fd5b506104b060048036036104ab91908101906145cf565b612f97565b6040516104bd91906155a9565b60405180910390f35b3480156104d257600080fd5b506104ed60048036036104e89190810190614741565b613345565b005b3480156104fb57600080fd5b506105046134c5565b005b34801561051257600080fd5b5061051b6134e7565b604051610528919061552f565b60405180910390f35b34801561053d57600080fd5b5061055860048036036105539190810190614428565b61350c565b60405161056591906155cb565b60405180910390f35b34801561057a57600080fd5b50610595600480360361059091908101906145cf565b6139a3565b6040516105a29190615783565b60405180910390f35b6105c560048036036105c09190810190614634565b6139fb565b005b6105e160048036036105dc91908101906149e1565b613d38565b005b3480156105ef57600080fd5b5061060a600480360361060591908101906145cf565b614060565b6040516106179190615608565b60405180910390f35b600061062b82614060565b121561066c576040517f08c379a000000000000000000000000000000000000000000000000000000000815260040161066390615703565b60405180910390fd5b3373ffffffffffffffffffffffffffffffffffffffff166007828154811061069057fe5b90600052602060002090600a020160030160009054906101000a900473ffffffffffffffffffffffffffffffffffffffff1673ffffffffffffffffffffffffffffffffffffffff1614610718576040517f08c379a000000000000000000000000000000000000000000000000000000000815260040161070f90615663565b60405180910390fd5b6000600761072583614060565b8154811061072f57fe5b90600052602060002090600a020160090160006101000a81548160ff0219169083151502179055506000600761076483614060565b8154811061076e57fe5b90600052602060002090600a020160090160016101000a81548160ff02191690831515021790555050565b3373ffffffffffffffffffffffffffffffffffffffff16600782815481106107bd57fe5b90600052602060002090600a020160030160009054906101000a900473ffffffffffffffffffffffffffffffffffffffff1673ffffffffffffffffffffffffffffffffffffffff1614610845576040517f08c379a000000000000000000000000000000000000000000000000000000000815260040161083c90615663565b60405180910390fd5b600061085082614060565b1215610891576040517f08c379a000000000000000000000000000000000000000000000000000000000815260040161088890615703565b60405180910390fd5b600761089c82614060565b815481106108a657fe5b90600052602060002090600a020160090160019054906101000a900460ff16610904576040517f08c379a00000000000000000000000000000000000000000000000000000000081526004016108fb90615723565b60405180910390fd5b81600761091083614060565b8154811061091a57fe5b90600052602060002090600a0201600101541461096c576040517f08c379a000000000000000000000000000000000000000000000000000000000815260040161096390615683565b60405180910390fd5b6000600761097983614060565b8154811061098357fe5b90600052602060002090600a020160090160016101000a81548160ff021916908315150217905550600060076109b883614060565b815481106109c257fe5b90600052602060002090600a020160090160026101000a81548173ffffffffffffffffffffffffffffffffffffffff021916908373ffffffffffffffffffffffffffffffffffffffff1602179055505050565b606080600560008473ffffffffffffffffffffffffffffffffffffffff1673ffffffffffffffffffffffffffffffffffffffff16815260200190815260200160002060006002815260200190815260200160002080549050604051908082528060200260200182016040528015610aa657816020015b610a9361410d565b815260200190600190039081610a8b5790505b50905060005b600560008573ffffffffffffffffffffffffffffffffffffffff1673ffffffffffffffffffffffffffffffffffffffff16815260200190815260200160002060006002815260200190815260200160002080549050811015610e5a578373ffffffffffffffffffffffffffffffffffffffff1660078281548110610b2c57fe5b90600052602060002090600a020160030160009054906101000a900473ffffffffffffffffffffffffffffffffffffffff1673ffffffffffffffffffffffffffffffffffffffff161415610e4d5760078181548110610b8757fe5b90600052602060002090600a0201604051806101a00160405290816000820154815260200160018201548152602001600282015481526020016003820160009054906101000a900473ffffffffffffffffffffffffffffffffffffffff1673ffffffffffffffffffffffffffffffffffffffff1673ffffffffffffffffffffffffffffffffffffffff1681526020016004820160009054906101000a90046fffffffffffffffffffffffffffffffff166fffffffffffffffffffffffffffffffff166fffffffffffffffffffffffffffffffff168152602001600582018054600181600116156101000203166002900480601f016020809104026020016040519081016040528092919081815260200182805460018160011615610100020316600290048015610cf85780601f10610ccd57610100808354040283529160200191610cf8565b820191906000526020600020905b815481529060010190602001808311610cdb57829003601f168201915b5050505050815260200160068201548152602001600782015481526020016008820160009054906101000a90046fffffffffffffffffffffffffffffffff166fffffffffffffffffffffffffffffffff166fffffffffffffffffffffffffffffffff1681526020016008820160109054906101000a90046fffffffffffffffffffffffffffffffff166fffffffffffffffffffffffffffffffff166fffffffffffffffffffffffffffffffff1681526020016009820160009054906101000a900460ff161515151581526020016009820160019054906101000a900460ff161515151581526020016009820160029054906101000a900473ffffffffffffffffffffffffffffffffffffffff1673ffffffffffffffffffffffffffffffffffffffff1673ffffffffffffffffffffffffffffffffffffffff1681525050828281518110610e4157fe5b60200260200101819052505b8080600101915050610aac565b5080915050919050565b60008273ffffffffffffffffffffffffffffffffffffffff1660068381548110610e8a57fe5b906000526020600020906008020160060160009054906101000a900473ffffffffffffffffffffffffffffffffffffffff1673ffffffffffffffffffffffffffffffffffffffff161415610ee15760019050610ee2565b5b92915050565b606080600560008473ffffffffffffffffffffffffffffffffffffffff1673ffffffffffffffffffffffffffffffffffffffff16815260200190815260200160002060006001815260200190815260200160002080549050604051908082528060200260200182016040528015610f7957816020015b610f666141db565b815260200190600190039081610f5e5790505b50905060005b600560008573ffffffffffffffffffffffffffffffffffffffff1673ffffffffffffffffffffffffffffffffffffffff16815260200190815260200160002060006001815260200190815260200160002080549050816fffffffffffffffffffffffffffffffff16101561150d578373ffffffffffffffffffffffffffffffffffffffff166006826fffffffffffffffffffffffffffffffff168154811061102357fe5b906000526020600020906008020160060160009054906101000a900473ffffffffffffffffffffffffffffffffffffffff1673ffffffffffffffffffffffffffffffffffffffff161415611500576006816fffffffffffffffffffffffffffffffff168154811061109057fe5b90600052602060002090600802016040518061010001604052908160008201548152602001600182018054600181600116156101000203166002900480601f01602080910402602001604051908101604052809291908181526020018280546001816001161561010002031660029004801561114d5780601f106111225761010080835404028352916020019161114d565b820191906000526020600020905b81548152906001019060200180831161113057829003601f168201915b50505050508152602001600282018054600181600116156101000203166002900480601f0160208091040260200160405190810160405280929190818152602001828054600181600116156101000203166002900480156111ef5780601f106111c4576101008083540402835291602001916111ef565b820191906000526020600020905b8154815290600101906020018083116111d257829003601f168201915b50505050508152602001600382018054600181600116156101000203166002900480601f0160208091040260200160405190810160405280929190818152602001828054600181600116156101000203166002900480156112915780601f1061126657610100808354040283529160200191611291565b820191906000526020600020905b81548152906001019060200180831161127457829003601f168201915b50505050508152602001600482018054600181600116156101000203166002900480601f0160208091040260200160405190810160405280929190818152602001828054600181600116156101000203166002900480156113335780601f1061130857610100808354040283529160200191611333565b820191906000526020600020905b81548152906001019060200180831161131657829003601f168201915b50505050508152602001600582018054600181600116156101000203166002900480601f0160208091040260200160405190810160405280929190818152602001828054600181600116156101000203166002900480156113d55780601f106113aa576101008083540402835291602001916113d5565b820191906000526020600020905b8154815290600101906020018083116113b857829003601f168201915b505050505081526020016006820160009054906101000a900473ffffffffffffffffffffffffffffffffffffffff1673ffffffffffffffffffffffffffffffffffffffff1673ffffffffffffffffffffffffffffffffffffffff168152602001600782018054600181600116156101000203166002900480601f0160208091040260200160405190810160405280929190818152602001828054600181600116156101000203166002900480156114cd5780601f106114a2576101008083540402835291602001916114cd565b820191906000526020600020905b8154815290600101906020018083116114b057829003601f168201915b50505050508152505082826fffffffffffffffffffffffffffffffff16815181106114f457fe5b60200260200101819052505b8080600101915050610f7f565b5080915050919050565b6000805b600560008573ffffffffffffffffffffffffffffffffffffffff1673ffffffffffffffffffffffffffffffffffffffff16815260200190815260200160002060006002815260200190815260200160002080549050816fffffffffffffffffffffffffffffffff1610156116205782600560008673ffffffffffffffffffffffffffffffffffffffff1673ffffffffffffffffffffffffffffffffffffffff168152602001908152602001600020600060018152602001908152602001600020826fffffffffffffffffffffffffffffffff16815481106115f857fe5b90600052602060002001541415611613576001915050611626565b808060010191505061151b565b50600090505b92915050565b6000805b600880549050816fffffffffffffffffffffffffffffffff16101561173657836008826fffffffffffffffffffffffffffffffff168154811061166f57fe5b90600052602060002090600802016001015414801561170957508273ffffffffffffffffffffffffffffffffffffffff166008826fffffffffffffffffffffffffffffffff16815481106116bf57fe5b906000526020600020906008020160020160009054906101000a900473ffffffffffffffffffffffffffffffffffffffff1673ffffffffffffffffffffffffffffffffffffffff16145b1561172957806fffffffffffffffffffffffffffffffff1691505061175b565b8080600101915050611630565b507fffffffffffffffffffffffffffffffffffffffffffffffffffffffffffffffff90505b92915050565b60606000805b600780549050816fffffffffffffffffffffffffffffffff1610156117d457836007826fffffffffffffffffffffffffffffffff16815481106117a657fe5b90600052602060002090600a02016001015414156117c75781806001019250505b8080600101915050611767565b5060608160405190808252806020026020018201604052801561181157816020015b6117fe61410d565b8152602001906001900390816117f65790505b50905060005b600780549050816fffffffffffffffffffffffffffffffff161015611b7257846007826fffffffffffffffffffffffffffffffff168154811061185657fe5b90600052602060002090600a0201600101541415611b65576007816fffffffffffffffffffffffffffffffff168154811061188d57fe5b90600052602060002090600a0201604051806101a00160405290816000820154815260200160018201548152602001600282015481526020016003820160009054906101000a900473ffffffffffffffffffffffffffffffffffffffff1673ffffffffffffffffffffffffffffffffffffffff1673ffffffffffffffffffffffffffffffffffffffff1681526020016004820160009054906101000a90046fffffffffffffffffffffffffffffffff166fffffffffffffffffffffffffffffffff166fffffffffffffffffffffffffffffffff168152602001600582018054600181600116156101000203166002900480601f0160208091040260200160405190810160405280929190818152602001828054600181600116156101000203166002900480156119fe5780601f106119d3576101008083540402835291602001916119fe565b820191906000526020600020905b8154815290600101906020018083116119e157829003601f168201915b5050505050815260200160068201548152602001600782015481526020016008820160009054906101000a90046fffffffffffffffffffffffffffffffff166fffffffffffffffffffffffffffffffff166fffffffffffffffffffffffffffffffff1681526020016008820160109054906101000a90046fffffffffffffffffffffffffffffffff166fffffffffffffffffffffffffffffffff166fffffffffffffffffffffffffffffffff1681526020016009820160009054906101000a900460ff161515151581526020016009820160019054906101000a900460ff161515151581526020016009820160029054906101000a900473ffffffffffffffffffffffffffffffffffffffff1673ffffffffffffffffffffffffffffffffffffffff1673ffffffffffffffffffffffffffffffffffffffff168152505082826fffffffffffffffffffffffffffffffff1681518110611b5957fe5b60200260200101819052505b8080600101915050611817565b508092505050919050565b611b873384610e64565b611bc6576040517f08c379a0000000000000000000000000000000000000000000000000000000008152600401611bbd90615743565b60405180910390fd5b6000611bd183614060565b1215611c12576040517f08c379a0000000000000000000000000000000000000000000000000000000008152600401611c0990615703565b60405180910390fd5b806007611c1e84614060565b81548110611c2857fe5b90600052602060002090600a020160030160006101000a81548173ffffffffffffffffffffffffffffffffffffffff021916908373ffffffffffffffffffffffffffffffffffffffff160217905550611c8382600283613345565b505050565b6006604051806101000160405280600160008154809291906001019190505581526020018881526020018781526020018681526020018581526020018481526020013373ffffffffffffffffffffffffffffffffffffffff168152602001838152509080600181540180825580915050600190039060005260206000209060080201600090919091909150600082015181600001556020820151816001019080519060200190611d39929190614236565b506040820151816002019080519060200190611d56929190614236565b506060820151816003019080519060200190611d73929190614236565b506080820151816004019080519060200190611d90929190614236565b5060a0820151816005019080519060200190611dad929190614236565b5060c08201518160060160006101000a81548173ffffffffffffffffffffffffffffffffffffffff021916908373ffffffffffffffffffffffffffffffffffffffff16021790555060e0820151816007019080519060200190611e11929190614236565b505050600560003373ffffffffffffffffffffffffffffffffffffffff1673ffffffffffffffffffffffffffffffffffffffff1681526020019081526020016000206000600181526020019081526020016000206001549080600181540180825580915050600190039060005260206000200160009091909190915055505050505050565b6000611ea182614060565b1215611ee2576040517f08c379a0000000000000000000000000000000000000000000000000000000008152600401611ed990615703565b60405180910390fd5b3373ffffffffffffffffffffffffffffffffffffffff1660078281548110611f0657fe5b90600052602060002090600a020160030160009054906101000a900473ffffffffffffffffffffffffffffffffffffffff1673ffffffffffffffffffffffffffffffffffffffff1614611f8e576040517f08c379a0000000000000000000000000000000000000000000000000000000008152600401611f8590615663565b60405180910390fd5b60016007611f9b83614060565b81548110611fa557fe5b90600052602060002090600a020160090160006101000a81548160ff02191690831515021790555050565b3373ffffffffffffffffffffffffffffffffffffffff1660078281548110611ff457fe5b90600052602060002090600a020160030160009054906101000a900473ffffffffffffffffffffffffffffffffffffffff1673ffffffffffffffffffffffffffffffffffffffff161461207c576040517f08c379a000000000000000000000000000000000000000000000000000000000815260040161207390615663565b60405180910390fd5b600061208782614060565b12156120c8576040517f08c379a00000000000000000000000000000000000000000000000000000000081526004016120bf90615703565b60405180910390fd5b60076120d382614060565b815481106120dd57fe5b90600052602060002090600a020160090160019054906101000a900460ff1661213b576040517f08c379a000000000000000000000000000000000000000000000000000000000815260040161213290615723565b60405180910390fd5b6000600761214883614060565b8154811061215257fe5b90600052602060002090600a020160090160016101000a81548160ff0219169083151502179055506000600761218783614060565b8154811061219157fe5b90600052602060002090600a020160090160026101000a81548173ffffffffffffffffffffffffffffffffffffffff021916908373ffffffffffffffffffffffffffffffffffffffff16021790555050565b6000805b600680549050816fffffffffffffffffffffffffffffffff1610156122a457826006826fffffffffffffffffffffffffffffffff168154811061222657fe5b9060005260206000209060080201600001541415612297576006816fffffffffffffffffffffffffffffffff168154811061225d57fe5b906000526020600020906008020160060160009054906101000a900473ffffffffffffffffffffffffffffffffffffffff169150506122aa565b80806001019150506121e7565b50600090505b919050565b6122b9338c610e64565b6122f8576040517f08c379a00000000000000000000000000000000000000000000000000000000081526004016122ef90615743565b60405180910390fd5b6007604051806101a00160405280600260008154809291906001019190505581526020018d81526020018c81526020013373ffffffffffffffffffffffffffffffffffffffff1681526020018b6fffffffffffffffffffffffffffffffff1681526020018a8152602001898152602001888152602001876fffffffffffffffffffffffffffffffff168152602001866fffffffffffffffffffffffffffffffff168152602001851515815260200184151581526020018373ffffffffffffffffffffffffffffffffffffffff1681525090806001815401808255809150506001900390600052602060002090600a020160009091909190915060008201518160000155602082015181600101556040820151816002015560608201518160030160006101000a81548173ffffffffffffffffffffffffffffffffffffffff021916908373ffffffffffffffffffffffffffffffffffffffff16021790555060808201518160040160006101000a8154816fffffffffffffffffffffffffffffffff02191690836fffffffffffffffffffffffffffffffff16021790555060a08201518160050190805190602001906124b1929190614236565b5060c0820151816006015560e082015181600701556101008201518160080160006101000a8154816fffffffffffffffffffffffffffffffff02191690836fffffffffffffffffffffffffffffffff1602179055506101208201518160080160106101000a8154816fffffffffffffffffffffffffffffffff02191690836fffffffffffffffffffffffffffffffff1602179055506101408201518160090160006101000a81548160ff0219169083151502179055506101608201518160090160016101000a81548160ff0219169083151502179055506101808201518160090160026101000a81548173ffffffffffffffffffffffffffffffffffffffff021916908373ffffffffffffffffffffffffffffffffffffffff1602179055505050600560003373ffffffffffffffffffffffffffffffffffffffff1673ffffffffffffffffffffffffffffffffffffffff16815260200190815260200160002060006002815260200190815260200160002060025490806001815401808255809150506001900390600052602060002001600090919091909150555050505050505050505050565b3373ffffffffffffffffffffffffffffffffffffffff166007888154811061267d57fe5b90600052602060002090600a020160030160009054906101000a900473ffffffffffffffffffffffffffffffffffffffff1673ffffffffffffffffffffffffffffffffffffffff1614612705576040517f08c379a00000000000000000000000000000000000000000000000000000000081526004016126fc90615643565b60405180910390fd5b600061271088614060565b1215612751576040517f08c379a000000000000000000000000000000000000000000000000000000000815260040161274890615703565b60405180910390fd5b60001515600761276089614060565b8154811061276a57fe5b90600052602060002090600a020160090160019054906101000a900460ff161515146127cb576040517f08c379a00000000000000000000000000000000000000000000000000000000081526004016127c290615763565b60405180910390fd5b8560076127d789614060565b815481106127e157fe5b90600052602060002090600a020160090160026101000a81548173ffffffffffffffffffffffffffffffffffffffff021916908373ffffffffffffffffffffffffffffffffffffffff1602179055506001600761283d89614060565b8154811061284757fe5b90600052602060002090600a020160090160016101000a81548160ff02191690831515021790555061287b87600288613345565b6008604051806101000160405280898152602001600360008154809291906001019190505581526020018873ffffffffffffffffffffffffffffffffffffffff1681526020018681526020018773ffffffffffffffffffffffffffffffffffffffff168152602001858152602001848152602001838152509080600181540180825580915050600190039060005260206000209060080201600090919091909150600082015181600001556020820151816001015560408201518160020160006101000a81548173ffffffffffffffffffffffffffffffffffffffff021916908373ffffffffffffffffffffffffffffffffffffffff1602179055506060820151816003015560808201518160040160006101000a81548173ffffffffffffffffffffffffffffffffffffffff021916908373ffffffffffffffffffffffffffffffffffffffff16021790555060a08201518160050190805190602001906129e4929190614236565b5060c0820151816006019080519060200190612a01929190614236565b5060e0820151816007019080519060200190612a1e929190614236565b505050612a2f600354600388613345565b5050505050505050565b606080600680549050604051908082528060200260200182016040528015612a7b57816020015b612a686142b6565b815260200190600190039081612a605790505b50905060005b600680549050816fffffffffffffffffffffffffffffffff161015612f8f576040518060e001604052806006836fffffffffffffffffffffffffffffffff1681548110612aca57fe5b90600052602060002090600802016001018054600181600116156101000203166002900480601f016020809104026020016040519081016040528092919081815260200182805460018160011615610100020316600290048015612b6f5780601f10612b4457610100808354040283529160200191612b6f565b820191906000526020600020905b815481529060010190602001808311612b5257829003601f168201915b505050505081526020016006836fffffffffffffffffffffffffffffffff1681548110612b9857fe5b90600052602060002090600802016002018054600181600116156101000203166002900480601f016020809104026020016040519081016040528092919081815260200182805460018160011615610100020316600290048015612c3d5780601f10612c1257610100808354040283529160200191612c3d565b820191906000526020600020905b815481529060010190602001808311612c2057829003601f168201915b505050505081526020016006836fffffffffffffffffffffffffffffffff1681548110612c6657fe5b90600052602060002090600802016003018054600181600116156101000203166002900480601f016020809104026020016040519081016040528092919081815260200182805460018160011615610100020316600290048015612d0b5780601f10612ce057610100808354040283529160200191612d0b565b820191906000526020600020905b815481529060010190602001808311612cee57829003601f168201915b505050505081526020016006836fffffffffffffffffffffffffffffffff1681548110612d3457fe5b90600052602060002090600802016004018054600181600116156101000203166002900480601f016020809104026020016040519081016040528092919081815260200182805460018160011615610100020316600290048015612dd95780601f10612dae57610100808354040283529160200191612dd9565b820191906000526020600020905b815481529060010190602001808311612dbc57829003601f168201915b505050505081526020016006836fffffffffffffffffffffffffffffffff1681548110612e0257fe5b90600052602060002090600802016005018054600181600116156101000203166002900480601f016020809104026020016040519081016040528092919081815260200182805460018160011615610100020316600290048015612ea75780601f10612e7c57610100808354040283529160200191612ea7565b820191906000526020600020905b815481529060010190602001808311612e8a57829003601f168201915b505050505081526020016006836fffffffffffffffffffffffffffffffff1681548110612ed057fe5b906000526020600020906008020160060160009054906101000a900473ffffffffffffffffffffffffffffffffffffffff1673ffffffffffffffffffffffffffffffffffffffff168152602001612f566006846fffffffffffffffffffffffffffffffff1681548110612f3f57fe5b906000526020600020906008020160000154611761565b81525082826fffffffffffffffffffffffffffffffff1681518110612f7757fe5b60200260200101819052508080600101915050612a81565b508091505090565b60606000612fa4836139a3565b1015612fe5576040517f08c379a0000000000000000000000000000000000000000000000000000000008152600401612fdc90615623565b60405180910390fd5b3373ffffffffffffffffffffffffffffffffffffffff166007838154811061300957fe5b90600052602060002090600a020160030160009054906101000a900473ffffffffffffffffffffffffffffffffffffffff1673ffffffffffffffffffffffffffffffffffffffff161461305b57600080fd5b6000613066836139a3565b90506060600560003373ffffffffffffffffffffffffffffffffffffffff1673ffffffffffffffffffffffffffffffffffffffff168152602001908152602001600020600060048152602001908152602001600020805490506040519080825280602002602001820160405280156130f857816020015b6130e5614309565b8152602001906001900390816130dd5790505b50905060005b600980549050816fffffffffffffffffffffffffffffffff16101561333a57826009826fffffffffffffffffffffffffffffffff168154811061313d57fe5b906000526020600020906007020160010154141561332d576009816fffffffffffffffffffffffffffffffff168154811061317457fe5b90600052602060002090600702016040518060e0016040529081600082015481526020016001820154815260200160028201548152602001600382018054600181600116156101000203166002900480601f0160208091040260200160405190810160405280929190818152602001828054600181600116156101000203166002900480156132445780601f1061321957610100808354040283529160200191613244565b820191906000526020600020905b81548152906001019060200180831161322757829003601f168201915b505050505081526020016004820154815260200160058201548152602001600682018054600181600116156101000203166002900480601f0160208091040260200160405190810160405280929190818152602001828054600181600116156101000203166002900480156132fa5780601f106132cf576101008083540402835291602001916132fa565b820191906000526020600020905b8154815290600101906020018083116132dd57829003601f168201915b50505050508152505082826fffffffffffffffffffffffffffffffff168151811061332157fe5b60200260200101819052505b80806001019150506130fe565b508092505050919050565b60005b600560008373ffffffffffffffffffffffffffffffffffffffff1673ffffffffffffffffffffffffffffffffffffffff168152602001908152602001600020600084815260200190815260200160002080549050816fffffffffffffffffffffffffffffffff1610156134475783600560008473ffffffffffffffffffffffffffffffffffffffff1673ffffffffffffffffffffffffffffffffffffffff1681526020019081526020016000206000858152602001908152602001600020826fffffffffffffffffffffffffffffffff168154811061342357fe5b9060005260206000200154141561343a57506134c0565b8080600101915050613348565b50600560008273ffffffffffffffffffffffffffffffffffffffff1673ffffffffffffffffffffffffffffffffffffffff16815260200190815260200160002060008381526020019081526020016000208390806001815401808255809150506001900390600052602060002001600090919091909150555b505050565b6000600181905550600060028190555060006003819055506000600481905550565b6000809054906101000a900473ffffffffffffffffffffffffffffffffffffffff1681565b606080600560008473ffffffffffffffffffffffffffffffffffffffff1673ffffffffffffffffffffffffffffffffffffffff1681526020019081526020016000206000600481526020019081526020016000208054905060405190808252806020026020018201604052801561359d57816020015b61358a61410d565b8152602001906001900390816135825790505b50905060005b600560008573ffffffffffffffffffffffffffffffffffffffff1673ffffffffffffffffffffffffffffffffffffffff16815260200190815260200160002060006004815260200190815260200160002080549050816fffffffffffffffffffffffffffffffff161015613999578373ffffffffffffffffffffffffffffffffffffffff166007826fffffffffffffffffffffffffffffffff168154811061364757fe5b90600052602060002090600a020160090160029054906101000a900473ffffffffffffffffffffffffffffffffffffffff1673ffffffffffffffffffffffffffffffffffffffff16141561398c576007816fffffffffffffffffffffffffffffffff16815481106136b457fe5b90600052602060002090600a0201604051806101a00160405290816000820154815260200160018201548152602001600282015481526020016003820160009054906101000a900473ffffffffffffffffffffffffffffffffffffffff1673ffffffffffffffffffffffffffffffffffffffff1673ffffffffffffffffffffffffffffffffffffffff1681526020016004820160009054906101000a90046fffffffffffffffffffffffffffffffff166fffffffffffffffffffffffffffffffff166fffffffffffffffffffffffffffffffff168152602001600582018054600181600116156101000203166002900480601f0160208091040260200160405190810160405280929190818152602001828054600181600116156101000203166002900480156138255780601f106137fa57610100808354040283529160200191613825565b820191906000526020600020905b81548152906001019060200180831161380857829003601f168201915b5050505050815260200160068201548152602001600782015481526020016008820160009054906101000a90046fffffffffffffffffffffffffffffffff166fffffffffffffffffffffffffffffffff166fffffffffffffffffffffffffffffffff1681526020016008820160109054906101000a90046fffffffffffffffffffffffffffffffff166fffffffffffffffffffffffffffffffff166fffffffffffffffffffffffffffffffff1681526020016009820160009054906101000a900460ff161515151581526020016009820160019054906101000a900460ff161515151581526020016009820160029054906101000a900473ffffffffffffffffffffffffffffffffffffffff1673ffffffffffffffffffffffffffffffffffffffff1673ffffffffffffffffffffffffffffffffffffffff168152505082826fffffffffffffffffffffffffffffffff168151811061398057fe5b60200260200101819052505b80806001019150506135a3565b5080915050919050565b6000805b6008805490508110156139f05782600882815481106139c257fe5b90600052602060002090600802016001015414156139e357809150506139f6565b80806001019150506139a7565b50600090505b919050565b6000613a0687614060565b1215613a47576040517f08c379a0000000000000000000000000000000000000000000000000000000008152600401613a3e90615703565b60405180910390fd5b336007613a5388614060565b81548110613a5d57fe5b90600052602060002090600a020160090160026101000a81548173ffffffffffffffffffffffffffffffffffffffff021916908373ffffffffffffffffffffffffffffffffffffffff16021790555060016007613ab988614060565b81548110613ac357fe5b90600052602060002090600a020160090160016101000a81548160ff021916908315150217905550613af786600233613345565b60078681548110613b0457fe5b90600052602060002090600a020160030160009054906101000a900473ffffffffffffffffffffffffffffffffffffffff1673ffffffffffffffffffffffffffffffffffffffff166108fc349081150290604051600060405180830381858888f19350505050158015613b7b573d6000803e3d6000fd5b506008604051806101000160405280888152602001600360008154809291906001019190505581526020013373ffffffffffffffffffffffffffffffffffffffff1681526020018681526020018773ffffffffffffffffffffffffffffffffffffffff168152602001858152602001848152602001838152509080600181540180825580915050600190039060005260206000209060080201600090919091909150600082015181600001556020820151816001015560408201518160020160006101000a81548173ffffffffffffffffffffffffffffffffffffffff021916908373ffffffffffffffffffffffffffffffffffffffff1602179055506060820151816003015560808201518160040160006101000a81548173ffffffffffffffffffffffffffffffffffffffff021916908373ffffffffffffffffffffffffffffffffffffffff16021790555060a0820151816005019080519060200190613ce5929190614236565b5060c0820151816006019080519060200190613d02929190614236565b5060e0820151816007019080519060200190613d1f929190614236565b505050613d30600354600333613345565b505050505050565b6000613d4387614060565b1215613d84576040517f08c379a0000000000000000000000000000000000000000000000000000000008152600401613d7b90615703565b60405180910390fd5b3373ffffffffffffffffffffffffffffffffffffffff166007613da688614060565b81548110613db057fe5b90600052602060002090600a020160090160029054906101000a900473ffffffffffffffffffffffffffffffffffffffff1673ffffffffffffffffffffffffffffffffffffffff1614613e38576040517f08c379a0000000000000000000000000000000000000000000000000000000008152600401613e2f906156c3565b60405180910390fd5b6000613e44873361162c565b1215613e85576040517f08c379a0000000000000000000000000000000000000000000000000000000008152600401613e7c906156e3565b60405180910390fd5b343373ffffffffffffffffffffffffffffffffffffffff16311015613edf576040517f08c379a0000000000000000000000000000000000000000000000000000000008152600401613ed6906156a3565b60405180910390fd5b60078681548110613eec57fe5b90600052602060002090600a020160030160009054906101000a900473ffffffffffffffffffffffffffffffffffffffff1673ffffffffffffffffffffffffffffffffffffffff166108fc349081150290604051600060405180830381858888f19350505050158015613f63573d6000803e3d6000fd5b5060096040518060e0016040528060046000815480929190600101919050558152602001613f91893361162c565b81526020018781526020018681526020018581526020018481526020018381525090806001815401808255809150506001900390600052602060002090600702016000909190919091506000820151816000015560208201518160010155604082015181600201556060820151816003019080519060200190614015929190614236565b506080820151816004015560a0820151816005015560c0820151816006019080519060200190614046929190614236565b505050614057600454600433613345565b50505050505050565b6000805b600780549050816fffffffffffffffffffffffffffffffff1610156140e357826007826fffffffffffffffffffffffffffffffff16815481106140a357fe5b90600052602060002090600a02016000015414156140d657806fffffffffffffffffffffffffffffffff16915050614108565b8080600101915050614064565b507fffffffffffffffffffffffffffffffffffffffffffffffffffffffffffffffff90505b919050565b604051806101a00160405280600081526020016000815260200160008152602001600073ffffffffffffffffffffffffffffffffffffffff16815260200160006fffffffffffffffffffffffffffffffff16815260200160608152602001600081526020016000815260200160006fffffffffffffffffffffffffffffffff16815260200160006fffffffffffffffffffffffffffffffff168152602001600015158152602001600015158152602001600073ffffffffffffffffffffffffffffffffffffffff1681525090565b604051806101000160405280600081526020016060815260200160608152602001606081526020016060815260200160608152602001600073ffffffffffffffffffffffffffffffffffffffff168152602001606081525090565b828054600181600116156101000203166002900490600052602060002090601f016020900481019282601f1061427757805160ff19168380011785556142a5565b828001600101855582156142a5579182015b828111156142a4578251825591602001919060010190614289565b5b5090506142b29190614346565b5090565b6040518060e001604052806060815260200160608152602001606081526020016060815260200160608152602001600073ffffffffffffffffffffffffffffffffffffffff168152602001606081525090565b6040518060e00160405280600081526020016000815260200160008152602001606081526020016000815260200160008152602001606081525090565b61436891905b8082111561436457600081600090555060010161434c565b5090565b90565b60008135905061437a81615a14565b92915050565b60008135905061438f81615a2b565b92915050565b6000813590506143a481615a42565b92915050565b600082601f8301126143bb57600080fd5b81356143ce6143c9826157cb565b61579e565b915080825260208301602083018583830111156143ea57600080fd5b6143f58382846159c1565b50505092915050565b60008135905061440d81615a59565b92915050565b60008135905061442281615a70565b92915050565b60006020828403121561443a57600080fd5b60006144488482850161436b565b91505092915050565b60006020828403121561446357600080fd5b600061447184828501614380565b91505092915050565b6000806040838503121561448d57600080fd5b600061449b8582860161436b565b92505060206144ac85828601614413565b9150509250929050565b60008060008060008060c087890312156144cf57600080fd5b600087013567ffffffffffffffff8111156144e957600080fd5b6144f589828a016143aa565b965050602087013567ffffffffffffffff81111561451257600080fd5b61451e89828a016143aa565b955050604087013567ffffffffffffffff81111561453b57600080fd5b61454789828a016143aa565b945050606087013567ffffffffffffffff81111561456457600080fd5b61457089828a016143aa565b935050608087013567ffffffffffffffff81111561458d57600080fd5b61459989828a016143aa565b92505060a087013567ffffffffffffffff8111156145b657600080fd5b6145c289828a016143aa565b9150509295509295509295565b6000602082840312156145e157600080fd5b60006145ef84828501614413565b91505092915050565b6000806040838503121561460b57600080fd5b600061461985828601614413565b925050602061462a8582860161436b565b9150509250929050565b60008060008060008060c0878903121561464d57600080fd5b600061465b89828a01614413565b965050602061466c89828a0161436b565b955050604061467d89828a01614413565b945050606087013567ffffffffffffffff81111561469a57600080fd5b6146a689828a016143aa565b935050608087013567ffffffffffffffff8111156146c357600080fd5b6146cf89828a016143aa565b92505060a087013567ffffffffffffffff8111156146ec57600080fd5b6146f889828a016143aa565b9150509295509295509295565b6000806040838503121561471857600080fd5b600061472685828601614413565b925050602061473785828601614413565b9150509250929050565b60008060006060848603121561475657600080fd5b600061476486828701614413565b935050602061477586828701614413565b92505060406147868682870161436b565b9150509250925092565b6000806000606084860312156147a557600080fd5b60006147b386828701614413565b93505060206147c486828701614413565b92505060406147d586828701614380565b9150509250925092565b600080600080600080600080610100898b0312156147fc57600080fd5b600061480a8b828c01614413565b985050602061481b8b828c01614413565b975050604061482c8b828c0161436b565b965050606061483d8b828c0161436b565b955050608061484e8b828c01614413565b94505060a089013567ffffffffffffffff81111561486b57600080fd5b6148778b828c016143aa565b93505060c089013567ffffffffffffffff81111561489457600080fd5b6148a08b828c016143aa565b92505060e089013567ffffffffffffffff8111156148bd57600080fd5b6148c98b828c016143aa565b9150509295985092959890939650565b60008060008060008060008060008060006101608c8e0312156148fb57600080fd5b60006149098e828f01614413565b9b5050602061491a8e828f01614413565b9a5050604061492b8e828f016143fe565b99505060608c013567ffffffffffffffff81111561494857600080fd5b6149548e828f016143aa565b98505060806149658e828f01614413565b97505060a06149768e828f01614413565b96505060c06149878e828f016143fe565b95505060e06149988e828f016143fe565b9450506101006149aa8e828f01614395565b9350506101206149bc8e828f01614395565b9250506101406149ce8e828f0161436b565b9150509295989b509295989b9093969950565b600080600080600080600060e0888a0312156149fc57600080fd5b6000614a0a8a828b01614413565b9750506020614a1b8a828b01614413565b9650506040614a2c8a828b01614413565b955050606088013567ffffffffffffffff811115614a4957600080fd5b614a558a828b016143aa565b9450506080614a668a828b01614413565b93505060a0614a778a828b01614413565b92505060c088013567ffffffffffffffff811115614a9457600080fd5b614aa08a828b016143aa565b91505092959891949750929550565b6000614abb83836151b4565b905092915050565b6000614acf8383615287565b905092915050565b6000614ae38383615346565b905092915050565b6000614af783836153e9565b905092915050565b614b0881615953565b82525050565b614b1781615953565b82525050565b614b2681615941565b82525050565b614b3581615941565b82525050565b6000614b4682615847565b614b5081856158ca565b935083602082028501614b62856157f7565b8060005b85811015614b9e5784840389528151614b7f8582614aaf565b9450614b8a83615889565b925060208a01995050600181019050614b66565b50829750879550505050505092915050565b6000614bbb82615852565b614bc581856158db565b935083602082028501614bd785615807565b8060005b85811015614c135784840389528151614bf48582614ac3565b9450614bff83615896565b925060208a01995050600181019050614bdb565b50829750879550505050505092915050565b6000614c308261585d565b614c3a81856158ec565b935083602082028501614c4c85615817565b8060005b85811015614c885784840389528151614c698582614ad7565b9450614c74836158a3565b925060208a01995050600181019050614c50565b50829750879550505050505092915050565b6000614ca582615873565b614caf818561590e565b935083602082028501614cc185615837565b8060005b85811015614cfd5784840389528151614cde8582614aeb565b9450614ce9836158bd565b925060208a01995050600181019050614cc5565b50829750879550505050505092915050565b6000614d1a82615868565b614d2481856158fd565b935083602082028501614d3685615827565b8060005b85811015614d725784840389528151614d538582614aeb565b9450614d5e836158b0565b925060208a01995050600181019050614d3a565b50829750879550505050505092915050565b614d8d81615965565b82525050565b614d9c81615965565b82525050565b614dab81615971565b82525050565b6000614dbc8261587e565b614dc6818561591f565b9350614dd68185602086016159d0565b614ddf81615a03565b840191505092915050565b6000614df7601283615930565b91507f636f6e7472616374206e6f7420666f756e6400000000000000000000000000006000830152602082019050919050565b6000614e37603f83615930565b91507f54686520706572736f6e20747279696e6720746f2061737369676e2074656e6160008301527f6e74206973206e6f7420746865206f776e6572206f66206275696c64696e67006020830152604082019050919050565b6000614e9d603483615930565b91507f54686520706572736f6e20747279696e6720746f207661636174652074656e6160008301527f6e74206973206e6f7420556e6974204f776e65720000000000000000000000006020830152604082019050919050565b6000614f03602983615930565b91507f756e697420646f65736e6f742062656c6f6e6720746f2074686520736169642060008301527f61706172746d656e7400000000000000000000000000000000000000000000006020830152604082019050919050565b6000614f69601283615930565b91507f496e73756666696369656e742066756e647300000000000000000000000000006000830152602082019050919050565b6000614fa9602483615930565b91507f54686520706572736f6e20706179696e672072656e74206973206e6f7420746560008301527f6e656e74000000000000000000000000000000000000000000000000000000006020830152604082019050919050565b600061500f601283615930565b91507f436f6e7472616374206e6f7420666f756e6400000000000000000000000000006000830152602082019050919050565b600061504f600e83615930565b91507f756e6974206e6f7420666f756e640000000000000000000000000000000000006000830152602082019050919050565b600061508f603383615930565b91507f54686520756e697420796f752061726520747279696e6720746f20766163617460008301527f6520697320616c726561647920766163616e74000000000000000000000000006020830152604082019050919050565b60006150f5603d83615930565b91507f54686520706572736f6e20747279696e6720746f2063726561746520756e697460008301527f206973206e6f7420746865206f776e6572206f66206275696c64696e670000006020830152604082019050919050565b600061515b602383615930565b91507f5468652073656c656374656420756e697420697320616c72656164792072656e60008301527f74656400000000000000000000000000000000000000000000000000000000006020830152604082019050919050565b6000610100830160008301516151cd6000860182615511565b50602083015184820360208601526151e58282614db1565b915050604083015184820360408601526151ff8282614db1565b915050606083015184820360608601526152198282614db1565b915050608083015184820360808601526152338282614db1565b91505060a083015184820360a086015261524d8282614db1565b91505060c083015161526260c0860182614aff565b5060e083015184820360e086015261527a8282614db1565b9150508091505092915050565b600060e08301600083015184820360008601526152a48282614db1565b915050602083015184820360208601526152be8282614db1565b915050604083015184820360408601526152d88282614db1565b915050606083015184820360608601526152f28282614db1565b9150506080830151848203608086015261530c8282614db1565b91505060a083015161532160a0860182614aff565b5060c083015184820360c08601526153398282614d0f565b9150508091505092915050565b600060e08301600083015161535e6000860182615511565b5060208301516153716020860182615511565b5060408301516153846040860182615511565b506060830151848203606086015261539c8282614db1565b91505060808301516153b16080860182615511565b5060a08301516153c460a0860182615511565b5060c083015184820360c08601526153dc8282614db1565b9150508091505092915050565b60006101a0830160008301516154026000860182615511565b5060208301516154156020860182615511565b5060408301516154286040860182615511565b50606083015161543b6060860182614aff565b50608083015161544e6080860182615502565b5060a083015184820360a08601526154668282614db1565b91505060c083015161547b60c0860182615511565b5060e083015161548e60e0860182615511565b506101008301516154a3610100860182615502565b506101208301516154b8610120860182615502565b506101408301516154cd610140860182614d84565b506101608301516154e2610160860182614d84565b506101808301516154f7610180860182614b1d565b508091505092915050565b61550b8161597b565b82525050565b61551a816159b7565b82525050565b615529816159b7565b82525050565b60006020820190506155446000830184614b2c565b92915050565b600060208201905061555f6000830184614b0e565b92915050565b6000602082019050818103600083015261557f8184614b3b565b905092915050565b600060208201905081810360008301526155a18184614bb0565b905092915050565b600060208201905081810360008301526155c38184614c25565b905092915050565b600060208201905081810360008301526155e58184614c9a565b905092915050565b60006020820190506156026000830184614d93565b92915050565b600060208201905061561d6000830184614da2565b92915050565b6000602082019050818103600083015261563c81614dea565b9050919050565b6000602082019050818103600083015261565c81614e2a565b9050919050565b6000602082019050818103600083015261567c81614e90565b9050919050565b6000602082019050818103600083015261569c81614ef6565b9050919050565b600060208201905081810360008301526156bc81614f5c565b9050919050565b600060208201905081810360008301526156dc81614f9c565b9050919050565b600060208201905081810360008301526156fc81615002565b9050919050565b6000602082019050818103600083015261571c81615042565b9050919050565b6000602082019050818103600083015261573c81615082565b9050919050565b6000602082019050818103600083015261575c816150e8565b9050919050565b6000602082019050818103600083015261577c8161514e565b9050919050565b60006020820190506157986000830184615520565b92915050565b6000604051905081810181811067ffffffffffffffff821117156157c157600080fd5b8060405250919050565b600067ffffffffffffffff8211156157e257600080fd5b601f19601f8301169050602081019050919050565b6000819050602082019050919050565b6000819050602082019050919050565b6000819050602082019050919050565b6000819050602082019050919050565b6000819050602082019050919050565b600081519050919050565b600081519050919050565b600081519050919050565b600081519050919050565b600081519050919050565b600081519050919050565b6000602082019050919050565b6000602082019050919050565b6000602082019050919050565b6000602082019050919050565b6000602082019050919050565b600082825260208201905092915050565b600082825260208201905092915050565b600082825260208201905092915050565b600082825260208201905092915050565b600082825260208201905092915050565b600082825260208201905092915050565b600082825260208201905092915050565b600061594c82615997565b9050919050565b600061595e82615997565b9050919050565b60008115159050919050565b6000819050919050565b60006fffffffffffffffffffffffffffffffff82169050919050565b600073ffffffffffffffffffffffffffffffffffffffff82169050919050565b6000819050919050565b82818337600083830152505050565b60005b838110156159ee5780820151818401526020810190506159d3565b838111156159fd576000848401525b50505050565b6000601f19601f8301169050919050565b615a1d81615941565b8114615a2857600080fd5b50565b615a3481615953565b8114615a3f57600080fd5b50565b615a4b81615965565b8114615a5657600080fd5b50565b615a628161597b565b8114615a6d57600080fd5b50565b615a79816159b7565b8114615a8457600080fd5b5056fea2646970667358221220ac149e91851409290b19eab8842871c4edc4b2a4d0c0ad6db354da7a2cbd4b9664736f6c63430006030033",
  "source": "pragma solidity ^0.6.3;\npragma experimental ABIEncoderV2;\n\ncontract  Apartments{\n    address public contractOwnerAddress;\n    uint256 apartment_id_generator;\n    uint256 unit_id_generator;\n    uint256 contract_id_generator;\n    uint256 payment_id_generator;\n\n    mapping(address => mapping(uint256 => uint256[]))personal; //1:apartment 2:unit 3:contract 4:rent\n    Apartment[] apartment_buildings;\n    unit[] Units;\n    unit_contract[] unit_contracts;\n    rent_payment[] rents;\n\n    struct Apartment{\n        uint256 apartment_id;\n        string apartment_name;\n        string door_number;\n        string street;\n        string locality;\n        string postal_code;\n        address payable apartment_owner;\n        string created_date;\n    }\n\n    struct unit{\n        uint256 unit_id;\n        uint256 apartment_id;\n        uint256 unit_number;\n        address payable unit_owner;\n        uint128 floor;\n        string direction;\n        uint256 monthly_rent;\n        uint256 sqft;\n        uint128 bed_rooms;\n        uint128 bath_rooms;\n        bool maintainance;\n        bool rented;\n        address current_tenent_address;\n    }\n\n    struct unit_contract{\n        uint256 contract_id;\n        uint256 unit_id;\n        address tenant_address;\n        uint256 advance_payment;\n        address unit_owner;\n        string start_date;\n        string end_date;\n        string contract_timestamp;\n    }\n\n    struct rent_payment{\n        uint256 payment_id;\n        uint256 contract_id;\n        uint256 year;\n        string month;\n        uint256 total_rent;\n        uint256 paid_ammount;\n        string payment_timestamp;\n    }\n\n    constructor() public{\n        contractOwnerAddress = msg.sender;\n        initiate_ids();\n    }\n\n    function initiate_ids() public{\n        apartment_id_generator = 0;\n        unit_id_generator = 0;\n        contract_id_generator = 0;\n        payment_id_generator = 0;\n    }\n\n    function createApartment(string memory _apartment_name,\n                            string memory _door_number,\n                            string memory _street,\n                            string memory _locality,\n                            string memory _postal_code,\n                            string memory _created_date) public {\n            \n            apartment_buildings.push(Apartment(apartment_id_generator++,\n                                                _apartment_name,\n                                                _door_number,\n                                                _street,\n                                                _locality,\n                                                _postal_code,\n                                                msg.sender,\n                                                _created_date));\n\n            personal[msg.sender][1].push(apartment_id_generator);\n        }\n\n    function createUnit(uint256 _apartment_id,\n                        uint256 _unit_number,\n                        uint128 _floor,\n                        string memory _direction,\n                        uint256 _monthly_rent,\n                        uint256 _sqft,\n                        uint128 _bed_rooms,\n                        uint128 _bath_rooms,\n                        bool _maintainance,\n                        bool _rented,\n                        address _current_tenent_address) public{\n            \n            require(checkApartmentOwnership(msg.sender,_apartment_id),\"The person trying to create unit is not the owner of building\");\n\n            Units.push(unit(unit_id_generator++,\n                        _apartment_id,\n                        _unit_number,\n                        msg.sender,\n                        _floor,\n                        _direction,\n                        _monthly_rent,\n                        _sqft,\n                        _bed_rooms,\n                        _bath_rooms,\n                        _maintainance,\n                        _rented,\n                        _current_tenent_address));\n\n            personal[msg.sender][2].push(unit_id_generator);\n    }\n\n    function AssignUnitOwner(uint256 _apartment_id, uint256 _unit_id,address payable _new_owner) public{\n        require(checkApartmentOwnership(msg.sender,_apartment_id),\"The person trying to create unit is not the owner of building\");\n        require(indexOfUnit(_unit_id)>=0,\"unit not found\");\n        Units[uint256(indexOfUnit(_unit_id))].unit_owner = _new_owner;\n        distinctOwnership(_unit_id, 2, _new_owner);\n    }\n\n    function AssignTenant(uint256 _apartment_id,\n                    uint256 _unit_id,\n                    address _tenant_address,\n                    address _unit_owner,\n                    uint256 _advance_payment,\n                    string memory _start_date,\n                    string memory _end_date,\n                    string memory _contract_timestamp) public{\n        require(Units[_unit_id].unit_owner == msg.sender,\"The person trying to assign tenant is not the owner of building\");\n        require(indexOfUnit(_unit_id)>=0,\"unit not found\");\n        require(Units[uint256(indexOfUnit(_unit_id))].rented == false,\"The selected unit is already rented\");\n        Units[uint256(indexOfUnit(_unit_id))].current_tenent_address = _tenant_address;\n        Units[uint256(indexOfUnit(_unit_id))].rented = true;\n        distinctOwnership(_unit_id, 2, _tenant_address);\n        unit_contracts.push(unit_contract(_unit_id,\n                                        contract_id_generator++,\n                                        _tenant_address,\n                                        _advance_payment,\n                                        _unit_owner,\n                                        _start_date,\n                                        _end_date,\n                                        _contract_timestamp));\n        distinctOwnership(contract_id_generator, 3, _tenant_address);\n    }\n\n    function vacateTenant(uint256 _apartment_id,uint256 _unit_id) public{\n        require(Units[_unit_id].unit_owner == msg.sender,\"The person trying to vacate tenant is not Unit Owner\");\n        require(indexOfUnit(_unit_id)>=0,\"unit not found\");\n        require(Units[uint256(indexOfUnit(_unit_id))].rented, \"The unit you are trying to vacate is already vacant\");\n        require(Units[uint256(indexOfUnit(_unit_id))].apartment_id == _apartment_id, \"unit doesnot belong to the said apartment\");\n        Units[uint256(indexOfUnit(_unit_id))].rented = false;\n        Units[uint256(indexOfUnit(_unit_id))].current_tenent_address = address(0);\n    }\n\n    function payRent(uint256 _apartment_id, uint256 _unit_id,\n                        uint256 _year,\n                        string memory _month,\n                        uint256 _total_rent,\n                        uint256 _paid_ammount,\n                        string memory _payment_timestamp) public payable{  //requires metadata {from: account, value: value}\n        require(indexOfUnit(_unit_id)>=0,\"unit not found\");\n        require(Units[uint256(indexOfUnit(_unit_id))].current_tenent_address == msg.sender,\"The person paying rent is not tenent\");\n        require(getContract(_unit_id,msg.sender)>=0,\"Contract not found\");\n        require(msg.sender.balance >= msg.value,\"Insufficient funds\");\n        Units[_unit_id].unit_owner.transfer(msg.value);\n        rents.push(rent_payment(payment_id_generator++,\n                        uint256(getContract(_unit_id,msg.sender)),\n                        _year,\n                        _month,\n                        _total_rent,\n                        _paid_ammount,\n                        _payment_timestamp));\n        distinctOwnership(payment_id_generator, 4, msg.sender);\n    }\n\n    function unitMaintainanceClose(uint256 _unit_id) public{\n        require(indexOfUnit(_unit_id)>=0,\"unit not found\");\n        require(Units[_unit_id].unit_owner == msg.sender,\"The person trying to vacate tenant is not Unit Owner\");\n        Units[uint256(indexOfUnit(_unit_id))].maintainance = true;\n    }\n\n    function unitMaintainanceOpen(uint256 _unit_id) public{\n        require(indexOfUnit(_unit_id)>=0,\"unit not found\");\n        require(Units[_unit_id].unit_owner == msg.sender,\"The person trying to vacate tenant is not Unit Owner\");\n        Units[uint256(indexOfUnit(_unit_id))].maintainance = false;\n        Units[uint256(indexOfUnit(_unit_id))].rented = false;\n    }\n\n    struct apartment_bundle{\n        string apartment_name;\n        string door_number;\n        string street;\n        string locality;\n        string postal_code;\n        address payable apartment_owner;\n        unit[] unit_bundle;\n    }\n\n    function getApartments() public view returns(apartment_bundle[] memory){\n        apartment_bundle[] memory temp = new apartment_bundle[](apartment_buildings.length);\n        for(uint128 i; i < apartment_buildings.length;i++){\n            temp[i] = apartment_bundle(apartment_buildings[i].apartment_name,\n                                        apartment_buildings[i].door_number,\n                                        apartment_buildings[i].street,\n                                        apartment_buildings[i].locality,\n                                        apartment_buildings[i].postal_code,\n                                        apartment_buildings[i].apartment_owner,\n                                        getApartmentUnits(apartment_buildings[i].apartment_id));\n        }\n        return temp;\n    }\n\n    function getApartmentUnits(uint256 _apartment_id)public view returns(unit[] memory){\n        uint256 counter;\n        for(uint128 i; i<Units.length; i++){\n            if(Units[i].apartment_id == _apartment_id){\n                counter++;\n            }\n        }\n        unit[] memory temp = new unit[](counter);\n        for(uint128 i; i<Units.length; i++){\n            if(Units[i].apartment_id == _apartment_id){\n                temp[i] = Units[i];\n            }\n        }\n        return temp;\n    }\n\n    function myApartments(address _owner)public view returns(Apartment[] memory){\n        Apartment[] memory temp1 = new Apartment[](personal[_owner][1].length);\n        for(uint128 i; i < personal[_owner][1].length ; i++){\n            if(apartment_buildings[i].apartment_owner == _owner){\n                temp1[i] = apartment_buildings[i];\n            }\n        }\n        return temp1;\n    }\n\n    function myUnits(address payable _owner)public view returns(unit[] memory){\n        unit[] memory temp2 = new unit[](personal[_owner][2].length);\n        for(uint256 i; i < personal[_owner][2].length ; i++){\n            if(Units[i].unit_owner == _owner){\n                temp2[i] = Units[i];\n            }\n        }\n        return temp2;\n    }\n\n    function myUnitsRentHistory(uint256 _unit_id) public view returns(rent_payment[] memory){\n        require(getCurrentContract(_unit_id) >= 0,\"contract not found\");\n        require(Units[_unit_id].unit_owner == msg.sender);\n        uint256 contract_id = uint256(getCurrentContract(_unit_id));\n        rent_payment[] memory temp3 = new rent_payment[](personal[msg.sender][4].length);\n        for(uint128 i; i<rents.length; i++){\n            if(rents[i].contract_id == contract_id){\n                temp3[i] = rents[i];\n            }\n        }\n        return temp3;\n    }\n\n    function myRentedUnits(address _tenant)public view returns(unit[] memory){\n        unit[] memory temp4 = new unit[](personal[_tenant][4].length);\n        for(uint128 i; i < personal[_tenant][4].length ; i++){\n            if(Units[i].current_tenent_address == _tenant){\n                temp4[i] = Units[i];\n            }\n        }\n        return temp4;\n    }\n\n    function clickToRent(uint256 _unit_id,\n                    address _unit_owner,\n                    uint256 _advance_payment,\n                    string memory _start_date,\n                    string memory _end_date,\n                    string memory _contract_timestamp) public payable{\n        require(indexOfUnit(_unit_id)>=0,\"unit not found\");\n        Units[uint256(indexOfUnit(_unit_id))].current_tenent_address = msg.sender;\n        Units[uint256(indexOfUnit(_unit_id))].rented = true;\n        distinctOwnership(_unit_id, 2, msg.sender);\n        Units[_unit_id].unit_owner.transfer(msg.value);\n        unit_contracts.push(unit_contract(_unit_id,\n                                        contract_id_generator++,\n                                        msg.sender,\n                                        _advance_payment,\n                                        _unit_owner,\n                                        _start_date,\n                                        _end_date,\n                                        _contract_timestamp));\n        distinctOwnership(contract_id_generator, 3, msg.sender);\n    }\n\n    function returnAdvance(uint256 _unit_id) public{\n        require(Units[_unit_id].unit_owner == msg.sender,\"The person trying to vacate tenant is not Unit Owner\");\n        require(indexOfUnit(_unit_id)>=0,\"unit not found\");\n        require(Units[uint256(indexOfUnit(_unit_id))].rented, \"The unit you are trying to vacate is already vacant\");\n        Units[uint256(indexOfUnit(_unit_id))].rented = false;\n        Units[uint256(indexOfUnit(_unit_id))].current_tenent_address = address(0);\n    }\n\n    //=========================================\n    //===========helper methods================\n    //=========================================\n\n    function checkApartmentOwnership(address _address,uint256 _apartment_id) public view returns(bool){\n        if(apartment_buildings[_apartment_id].apartment_owner == _address){\n                return true;\n            }\n    }\n\n    function getContract(uint256 _unit_id, address _tenant_address)public view returns(int256){\n        for(uint128 i; i<unit_contracts.length; i++){\n            if(unit_contracts[i].unit_id == _unit_id && unit_contracts[i].tenant_address == _tenant_address){\n                return i;\n            }\n        }\n        return -1;\n    }\n\n    function getCurrentContract(uint256 _unit_id)public view returns(uint256){\n        for(uint256 i; i<unit_contracts.length; i++){\n            if(unit_contracts[i].unit_id == _unit_id){\n                return i;\n            }\n        }\n        return 0;\n    }\n\n    function multiply(uint x, uint y) internal pure returns (uint z) {\n        require(y == 0 || (z = x * y) / y == x);\n    }\n\n    function getApartmentOwner(uint256 _apartment_id) public view returns(address payable){\n        for(uint128 i; i < apartment_buildings.length ;i++){\n            if(apartment_buildings[i].apartment_id == _apartment_id){\n                return apartment_buildings[i].apartment_owner;\n            }\n        }\n        return address(0);\n    }\n\n    function checkUnitOwnership(address _address,uint256 _unit_id) public view returns(bool){\n        for(uint128 i; i < personal[_address][2].length ;i++){\n            if(personal[_address][1][i] == _unit_id){\n                return true;\n            }\n        }\n        return false;\n    }\n\n    function indexOfUnit(uint256 _unit_id) public view returns(int256){\n        for(uint128 i; i < Units.length ;i++){\n            if(Units[i].unit_id == _unit_id){\n                return i;\n            }\n        }\n        return -1;\n    }\n\n    function distinctOwnership(uint256 _id, uint256 _type, address _person) public{\n        for(uint128 i; i < personal[_person][_type].length ;i++){\n            if(personal[_person][_type][i] == _id){\n                return ;\n            }\n        }\n        personal[_person][_type].push(_id);\n    }\n }",
  "sourcePath": "/home/user/dev/www/Block-chain/Block_chain_UI_Project/blockchain-asli-check/reactjs_code/contracts/Coin.sol",
  "compiler": {
    "name": "solc",
    "version": "0.6.3+commit.8dda9521.Emscripten.clang"
  },
  "schemaVersion": "3.0.23",
  "updatedAt": "2020-03-20T06:08:31.790Z",
  "networkType": "ethereum",
  "devdoc": {
    "methods": {}
  },
  "userdoc": {
    "methods": {}
  }
}