{
  "contractName": "ProductVerification",
  "abi": [
    {
      "inputs": [],
      "stateMutability": "nonpayable",
      "type": "constructor"
    },
    {
      "inputs": [],
      "name": "contractOwnerAddress",
      "outputs": [
        {
          "internalType": "address",
          "name": "",
          "type": "address"
        }
      ],
      "stateMutability": "view",
      "type": "function",
      "constant": true
    },
    {
      "inputs": [],
      "name": "initiate_ids",
      "outputs": [],
      "stateMutability": "nonpayable",
      "type": "function"
    },
    {
      "inputs": [
        {
          "internalType": "string",
          "name": "_product_hash",
          "type": "string"
        },
        {
          "internalType": "string",
          "name": "_product_uns",
          "type": "string"
        },
        {
          "internalType": "string",
          "name": "_product_name",
          "type": "string"
        },
        {
          "internalType": "string",
          "name": "_weight",
          "type": "string"
        },
        {
          "internalType": "string",
          "name": "_packing_dimension",
          "type": "string"
        },
        {
          "internalType": "string",
          "name": "_expiry_date",
          "type": "string"
        },
        {
          "internalType": "string",
          "name": "_manufacturing_date",
          "type": "string"
        },
        {
          "internalType": "string",
          "name": "_manufacturing_location",
          "type": "string"
        }
      ],
      "name": "createproduct",
      "outputs": [],
      "stateMutability": "nonpayable",
      "type": "function"
    },
    {
      "inputs": [],
      "name": "getProducts",
      "outputs": [
        {
          "components": [
            {
              "internalType": "string",
              "name": "product_hash",
              "type": "string"
            },
            {
              "internalType": "string",
              "name": "product_uns",
              "type": "string"
            },
            {
              "internalType": "string",
              "name": "product_name",
              "type": "string"
            },
            {
              "internalType": "string",
              "name": "weight",
              "type": "string"
            },
            {
              "internalType": "string",
              "name": "packing_dimension",
              "type": "string"
            },
            {
              "internalType": "string",
              "name": "expiry_date",
              "type": "string"
            },
            {
              "internalType": "string",
              "name": "manufacturing_date",
              "type": "string"
            },
            {
              "internalType": "string",
              "name": "manufacturing_location",
              "type": "string"
            }
          ],
          "internalType": "struct ProductVerification.product_bundle[]",
          "name": "",
          "type": "tuple[]"
        }
      ],
      "stateMutability": "view",
      "type": "function",
      "constant": true
    },
    {
      "inputs": [
        {
          "internalType": "address",
          "name": "_owner",
          "type": "address"
        }
      ],
      "name": "myProducts",
      "outputs": [
        {
          "components": [
            {
              "internalType": "uint256",
              "name": "product_id",
              "type": "uint256"
            },
            {
              "internalType": "string",
              "name": "product_hash",
              "type": "string"
            },
            {
              "internalType": "string",
              "name": "product_uns",
              "type": "string"
            },
            {
              "internalType": "string",
              "name": "product_name",
              "type": "string"
            },
            {
              "internalType": "string",
              "name": "weight",
              "type": "string"
            },
            {
              "internalType": "string",
              "name": "packing_dimension",
              "type": "string"
            },
            {
              "internalType": "string",
              "name": "expiry_date",
              "type": "string"
            },
            {
              "internalType": "string",
              "name": "manufacturing_date",
              "type": "string"
            },
            {
              "internalType": "string",
              "name": "manufacturing_location",
              "type": "string"
            }
          ],
          "internalType": "struct ProductVerification.product[]",
          "name": "",
          "type": "tuple[]"
        }
      ],
      "stateMutability": "view",
      "type": "function",
      "constant": true
    },
    {
      "inputs": [
        {
          "internalType": "uint256",
          "name": "_product_id",
          "type": "uint256"
        }
      ],
      "name": "getProductHash",
      "outputs": [
        {
          "internalType": "string",
          "name": "",
          "type": "string"
        }
      ],
      "stateMutability": "view",
      "type": "function",
      "constant": true
    }
  ],
  "bytecode": "0x608060405234801561001057600080fd5b50336000806101000a81548173ffffffffffffffffffffffffffffffffffffffff021916908373ffffffffffffffffffffffffffffffffffffffff16021790555061005f61006460201b60201c565b61006e565b6000600181905550565b611c188061007d6000396000f3fe608060405234801561001057600080fd5b50600436106100625760003560e01c806345090e6b146100675780639d58f0da14610083578063b80b80a0146100b3578063c29b2f20146100bd578063cb44c5f3146100db578063df8c5280146100f9575b600080fd5b610081600480360361007c919081019061148d565b610129565b005b61009d600480360361009891908101906115ff565b61031d565b6040516100aa9190611a00565b60405180910390f35b6100bb61045e565b005b6100c5610468565b6040516100d291906119de565b60405180910390f35b6100e3610b87565b6040516100f091906119a1565b60405180910390f35b610113600480360361010e9190810190611464565b610bac565b60405161012091906119bc565b60405180910390f35b6003604051806101200160405280600160008154809291906001019190505581526020018a81526020018981526020018881526020018781526020018681526020018581526020018481526020018381525090806001815401808255809150506001900390600052602060002090600902016000909190919091506000820151816000015560208201518160010190805190602001906101ca9291906112b0565b5060408201518160020190805190602001906101e79291906112b0565b5060608201518160030190805190602001906102049291906112b0565b5060808201518160040190805190602001906102219291906112b0565b5060a082015181600501908051906020019061023e9291906112b0565b5060c082015181600601908051906020019061025b9291906112b0565b5060e08201518160070190805190602001906102789291906112b0565b506101008201518160080190805190602001906102969291906112b0565b505050600260003373ffffffffffffffffffffffffffffffffffffffff1673ffffffffffffffffffffffffffffffffffffffff16815260200190815260200160002060006001815260200190815260200160002060015490806001815401808255809150506001900390600052602060002001600090919091909150555050505050505050565b606060005b600380549050816fffffffffffffffffffffffffffffffff16101561045757826003826fffffffffffffffffffffffffffffffff168154811061036157fe5b906000526020600020906009020160000154141561044a576003816fffffffffffffffffffffffffffffffff168154811061039857fe5b90600052602060002090600902016001018054600181600116156101000203166002900480601f01602080910402602001604051908101604052809291908181526020018280546001816001161561010002031660029004801561043d5780601f106104125761010080835404028352916020019161043d565b820191906000526020600020905b81548152906001019060200180831161042057829003601f168201915b5050505050915050610459565b8080600101915050610322565b505b919050565b6000600181905550565b6060806003805490506040519080825280602002602001820160405280156104aa57816020015b610497611330565b81526020019060019003908161048f5790505b50905060005b600380549050816fffffffffffffffffffffffffffffffff161015610b7f576040518061010001604052806003836fffffffffffffffffffffffffffffffff16815481106104fa57fe5b90600052602060002090600902016001018054600181600116156101000203166002900480601f01602080910402602001604051908101604052809291908181526020018280546001816001161561010002031660029004801561059f5780601f106105745761010080835404028352916020019161059f565b820191906000526020600020905b81548152906001019060200180831161058257829003601f168201915b505050505081526020016003836fffffffffffffffffffffffffffffffff16815481106105c857fe5b90600052602060002090600902016002018054600181600116156101000203166002900480601f01602080910402602001604051908101604052809291908181526020018280546001816001161561010002031660029004801561066d5780601f106106425761010080835404028352916020019161066d565b820191906000526020600020905b81548152906001019060200180831161065057829003601f168201915b505050505081526020016003836fffffffffffffffffffffffffffffffff168154811061069657fe5b90600052602060002090600902016003018054600181600116156101000203166002900480601f01602080910402602001604051908101604052809291908181526020018280546001816001161561010002031660029004801561073b5780601f106107105761010080835404028352916020019161073b565b820191906000526020600020905b81548152906001019060200180831161071e57829003601f168201915b505050505081526020016003836fffffffffffffffffffffffffffffffff168154811061076457fe5b90600052602060002090600902016004018054600181600116156101000203166002900480601f0160208091040260200160405190810160405280929190818152602001828054600181600116156101000203166002900480156108095780601f106107de57610100808354040283529160200191610809565b820191906000526020600020905b8154815290600101906020018083116107ec57829003601f168201915b505050505081526020016003836fffffffffffffffffffffffffffffffff168154811061083257fe5b90600052602060002090600902016005018054600181600116156101000203166002900480601f0160208091040260200160405190810160405280929190818152602001828054600181600116156101000203166002900480156108d75780601f106108ac576101008083540402835291602001916108d7565b820191906000526020600020905b8154815290600101906020018083116108ba57829003601f168201915b505050505081526020016003836fffffffffffffffffffffffffffffffff168154811061090057fe5b90600052602060002090600902016006018054600181600116156101000203166002900480601f0160208091040260200160405190810160405280929190818152602001828054600181600116156101000203166002900480156109a55780601f1061097a576101008083540402835291602001916109a5565b820191906000526020600020905b81548152906001019060200180831161098857829003601f168201915b505050505081526020016003836fffffffffffffffffffffffffffffffff16815481106109ce57fe5b90600052602060002090600902016007018054600181600116156101000203166002900480601f016020809104026020016040519081016040528092919081815260200182805460018160011615610100020316600290048015610a735780601f10610a4857610100808354040283529160200191610a73565b820191906000526020600020905b815481529060010190602001808311610a5657829003601f168201915b505050505081526020016003836fffffffffffffffffffffffffffffffff1681548110610a9c57fe5b90600052602060002090600902016008018054600181600116156101000203166002900480601f016020809104026020016040519081016040528092919081815260200182805460018160011615610100020316600290048015610b415780601f10610b1657610100808354040283529160200191610b41565b820191906000526020600020905b815481529060010190602001808311610b2457829003601f168201915b505050505081525082826fffffffffffffffffffffffffffffffff1681518110610b6757fe5b602002602001018190525080806001019150506104b0565b508091505090565b6000809054906101000a900473ffffffffffffffffffffffffffffffffffffffff1681565b606080600260008473ffffffffffffffffffffffffffffffffffffffff1673ffffffffffffffffffffffffffffffffffffffff16815260200190815260200160002060006001815260200190815260200160002080549050604051908082528060200260200182016040528015610c3d57816020015b610c2a611375565b815260200190600190039081610c225790505b50905060008090505b600260008573ffffffffffffffffffffffffffffffffffffffff1673ffffffffffffffffffffffffffffffffffffffff16815260200190815260200160002060006001815260200190815260200160002080549050816fffffffffffffffffffffffffffffffff1610156112a65760036001600260008773ffffffffffffffffffffffffffffffffffffffff1673ffffffffffffffffffffffffffffffffffffffff168152602001908152602001600020600060018152602001908152602001600020836fffffffffffffffffffffffffffffffff1681548110610d2657fe5b90600052602060002001540381548110610d3c57fe5b90600052602060002090600902016040518061012001604052908160008201548152602001600182018054600181600116156101000203166002900480601f016020809104026020016040519081016040528092919081815260200182805460018160011615610100020316600290048015610df95780601f10610dce57610100808354040283529160200191610df9565b820191906000526020600020905b815481529060010190602001808311610ddc57829003601f168201915b50505050508152602001600282018054600181600116156101000203166002900480601f016020809104026020016040519081016040528092919081815260200182805460018160011615610100020316600290048015610e9b5780601f10610e7057610100808354040283529160200191610e9b565b820191906000526020600020905b815481529060010190602001808311610e7e57829003601f168201915b50505050508152602001600382018054600181600116156101000203166002900480601f016020809104026020016040519081016040528092919081815260200182805460018160011615610100020316600290048015610f3d5780601f10610f1257610100808354040283529160200191610f3d565b820191906000526020600020905b815481529060010190602001808311610f2057829003601f168201915b50505050508152602001600482018054600181600116156101000203166002900480601f016020809104026020016040519081016040528092919081815260200182805460018160011615610100020316600290048015610fdf5780601f10610fb457610100808354040283529160200191610fdf565b820191906000526020600020905b815481529060010190602001808311610fc257829003601f168201915b50505050508152602001600582018054600181600116156101000203166002900480601f0160208091040260200160405190810160405280929190818152602001828054600181600116156101000203166002900480156110815780601f1061105657610100808354040283529160200191611081565b820191906000526020600020905b81548152906001019060200180831161106457829003601f168201915b50505050508152602001600682018054600181600116156101000203166002900480601f0160208091040260200160405190810160405280929190818152602001828054600181600116156101000203166002900480156111235780601f106110f857610100808354040283529160200191611123565b820191906000526020600020905b81548152906001019060200180831161110657829003601f168201915b50505050508152602001600782018054600181600116156101000203166002900480601f0160208091040260200160405190810160405280929190818152602001828054600181600116156101000203166002900480156111c55780601f1061119a576101008083540402835291602001916111c5565b820191906000526020600020905b8154815290600101906020018083116111a857829003601f168201915b50505050508152602001600882018054600181600116156101000203166002900480601f0160208091040260200160405190810160405280929190818152602001828054600181600116156101000203166002900480156112675780601f1061123c57610100808354040283529160200191611267565b820191906000526020600020905b81548152906001019060200180831161124a57829003601f168201915b50505050508152505082826fffffffffffffffffffffffffffffffff168151811061128e57fe5b60200260200101819052508080600101915050610c46565b5080915050919050565b828054600181600116156101000203166002900490600052602060002090601f016020900481019282601f106112f157805160ff191683800117855561131f565b8280016001018555821561131f579182015b8281111561131e578251825591602001919060010190611303565b5b50905061132c91906113c1565b5090565b60405180610100016040528060608152602001606081526020016060815260200160608152602001606081526020016060815260200160608152602001606081525090565b6040518061012001604052806000815260200160608152602001606081526020016060815260200160608152602001606081526020016060815260200160608152602001606081525090565b6113e391905b808211156113df5760008160009055506001016113c7565b5090565b90565b6000813590506113f581611bb4565b92915050565b600082601f83011261140c57600080fd5b813561141f61141a82611a4f565b611a22565b9150808252602083016020830185838301111561143b57600080fd5b611446838284611b61565b50505092915050565b60008135905061145e81611bcb565b92915050565b60006020828403121561147657600080fd5b6000611484848285016113e6565b91505092915050565b600080600080600080600080610100898b0312156114aa57600080fd5b600089013567ffffffffffffffff8111156114c457600080fd5b6114d08b828c016113fb565b985050602089013567ffffffffffffffff8111156114ed57600080fd5b6114f98b828c016113fb565b975050604089013567ffffffffffffffff81111561151657600080fd5b6115228b828c016113fb565b965050606089013567ffffffffffffffff81111561153f57600080fd5b61154b8b828c016113fb565b955050608089013567ffffffffffffffff81111561156857600080fd5b6115748b828c016113fb565b94505060a089013567ffffffffffffffff81111561159157600080fd5b61159d8b828c016113fb565b93505060c089013567ffffffffffffffff8111156115ba57600080fd5b6115c68b828c016113fb565b92505060e089013567ffffffffffffffff8111156115e357600080fd5b6115ef8b828c016113fb565b9150509295985092959890939650565b60006020828403121561161157600080fd5b600061161f8482850161144f565b91505092915050565b600061163483836117bb565b905092915050565b600061164883836118b1565b905092915050565b61165981611b25565b82525050565b600061166a82611a9b565b6116748185611ae1565b93508360208202850161168685611a7b565b8060005b858110156116c257848403895281516116a38582611628565b94506116ae83611ac7565b925060208a0199505060018101905061168a565b50829750879550505050505092915050565b60006116df82611aa6565b6116e98185611af2565b9350836020820285016116fb85611a8b565b8060005b858110156117375784840389528151611718858261163c565b945061172383611ad4565b925060208a019950506001810190506116ff565b50829750879550505050505092915050565b600061175482611abc565b61175e8185611b14565b935061176e818560208601611b70565b61177781611ba3565b840191505092915050565b600061178d82611ab1565b6117978185611b03565b93506117a7818560208601611b70565b6117b081611ba3565b840191505092915050565b6000610120830160008301516117d46000860182611992565b50602083015184820360208601526117ec8282611782565b915050604083015184820360408601526118068282611782565b915050606083015184820360608601526118208282611782565b9150506080830151848203608086015261183a8282611782565b91505060a083015184820360a08601526118548282611782565b91505060c083015184820360c086015261186e8282611782565b91505060e083015184820360e08601526118888282611782565b9150506101008301518482036101008601526118a48282611782565b9150508091505092915050565b60006101008301600083015184820360008601526118cf8282611782565b915050602083015184820360208601526118e98282611782565b915050604083015184820360408601526119038282611782565b9150506060830151848203606086015261191d8282611782565b915050608083015184820360808601526119378282611782565b91505060a083015184820360a08601526119518282611782565b91505060c083015184820360c086015261196b8282611782565b91505060e083015184820360e08601526119858282611782565b9150508091505092915050565b61199b81611b57565b82525050565b60006020820190506119b66000830184611650565b92915050565b600060208201905081810360008301526119d6818461165f565b905092915050565b600060208201905081810360008301526119f881846116d4565b905092915050565b60006020820190508181036000830152611a1a8184611749565b905092915050565b6000604051905081810181811067ffffffffffffffff82111715611a4557600080fd5b8060405250919050565b600067ffffffffffffffff821115611a6657600080fd5b601f19601f8301169050602081019050919050565b6000819050602082019050919050565b6000819050602082019050919050565b600081519050919050565b600081519050919050565b600081519050919050565b600081519050919050565b6000602082019050919050565b6000602082019050919050565b600082825260208201905092915050565b600082825260208201905092915050565b600082825260208201905092915050565b600082825260208201905092915050565b6000611b3082611b37565b9050919050565b600073ffffffffffffffffffffffffffffffffffffffff82169050919050565b6000819050919050565b82818337600083830152505050565b60005b83811015611b8e578082015181840152602081019050611b73565b83811115611b9d576000848401525b50505050565b6000601f19601f8301169050919050565b611bbd81611b25565b8114611bc857600080fd5b50565b611bd481611b57565b8114611bdf57600080fd5b5056fea26469706673582212207d297cda967c5d86968bdaeb87cc1796b8677fb82d4a114aa199cc1c9e7d0ab664736f6c63430006030033",
  "source": "pragma solidity ^0.6.3;\npragma experimental ABIEncoderV2;\n\n contract  ProductVerification{\n    address public contractOwnerAddress;\n    uint256 product_id_generator;\n\n\n    mapping(address => mapping(uint256 => uint256[]))personal; \n    product[] product_listing;\n\n\n    struct product{\n        uint256 product_id;\n        string product_hash ;\n        string product_uns;\n        string product_name;\n        string weight;\n        string packing_dimension;\n        string expiry_date;\n        string manufacturing_date;\n        string manufacturing_location;\n    }\n    \n    struct product_bundle{\n        string product_hash;\n        string product_uns;\n        string product_name;\n        string weight;\n        string packing_dimension;\n        string expiry_date;\n        string manufacturing_date;\n        string manufacturing_location;\n    }\n\n    constructor() public{\n        contractOwnerAddress = msg.sender;\n        initiate_ids();\n    }\n\n    function initiate_ids() public{\n        product_id_generator = 0;\n\n    }\n\n    function createproduct(string memory _product_hash, \n                            string memory _product_uns,\n                            string memory _product_name,\n                            string memory _weight,\n                            string memory _packing_dimension,\n                            string memory _expiry_date,\n                            string memory _manufacturing_date,\n                            string memory _manufacturing_location) public {\n            \n            product_listing.push(product(product_id_generator++,\n                                        _product_hash, \n                                        _product_uns,\n                                        _product_name,\n                                        _weight,\n                                        _packing_dimension,\n                                        _expiry_date,\n                                        _manufacturing_date,\n                                        _manufacturing_location));\n\n            personal[msg.sender][1].push(product_id_generator);\n        }\n\n\n\n\n    function getProducts() public view returns(product_bundle[] memory){\n        product_bundle[] memory temp = new product_bundle[](product_listing.length);\n        for(uint128 i; i < product_listing.length;i++){\n            temp[i] = product_bundle(product_listing[i].product_hash,\n                                        product_listing[i].product_uns,\n                                        product_listing[i].product_name,\n                                        product_listing[i].weight,\n                                        product_listing[i].packing_dimension,\n                                        product_listing[i].expiry_date,\n                                        product_listing[i].manufacturing_date,\n                                        product_listing[i].manufacturing_location\n                                        );\n        }\n        return temp;\n    }\n\n    function myProducts(address _owner)public view returns(product[] memory){\n        product[] memory temp1 = new product[](personal[_owner][1].length);\n        for(uint128 i=0; i < personal[_owner][1].length ; i++){\n            temp1[i] = product_listing[personal[_owner][1][i]-1];\n        }\n        return temp1;\n    }\n\n    function getProductHash(uint256 _product_id) public view returns(string memory){\n        for(uint128 i; i < product_listing.length ;i++){\n            if(product_listing[i].product_id == _product_id){\n                return product_listing[i].product_hash;\n            }\n        }\n        //return address(0);\n    }\n\n\n }",
  "sourcePath": "/home/user/dev/www/Block-chain/Block_chain_UI_Project/blockchain-asli-check/reactjs_code/contracts/Coin.sol",
  "compiler": {
    "name": "solc",
    "version": "0.6.3+commit.8dda9521.Emscripten.clang"
  },
  "schemaVersion": "3.0.23",
  "updatedAt": "2020-03-21T03:49:23.079Z",
  "networkType": "ethereum",
  "devdoc": {
    "methods": {}
  },
  "userdoc": {
    "methods": {}
  }
}