{
  "contractName": "ProductVerification",
  "abi": [
    {
      "inputs": [],
      "stateMutability": "nonpayable",
      "type": "constructor"
    },
    {
      "inputs": [],
      "name": "contractOwnerAddress",
      "outputs": [
        {
          "internalType": "address",
          "name": "",
          "type": "address"
        }
      ],
      "stateMutability": "view",
      "type": "function",
      "constant": true
    },
    {
      "inputs": [],
      "name": "initiate_ids",
      "outputs": [],
      "stateMutability": "nonpayable",
      "type": "function"
    },
    {
      "inputs": [
        {
          "internalType": "string",
          "name": "_product_hash",
          "type": "string"
        },
        {
          "internalType": "string",
          "name": "_brand",
          "type": "string"
        },
        {
          "internalType": "string",
          "name": "_model",
          "type": "string"
        },
        {
          "internalType": "string",
          "name": "_weight",
          "type": "string"
        },
        {
          "internalType": "string",
          "name": "_dimension",
          "type": "string"
        },
        {
          "internalType": "string",
          "name": "_camera_pixel",
          "type": "string"
        },
        {
          "internalType": "string",
          "name": "_battery_lifetime",
          "type": "string"
        },
        {
          "internalType": "string",
          "name": "_wireless_range",
          "type": "string"
        },
        {
          "internalType": "string",
          "name": "_manufacturing_date",
          "type": "string"
        },
        {
          "internalType": "string",
          "name": "_manufacturing_location",
          "type": "string"
        }
      ],
      "name": "createproduct",
      "outputs": [],
      "stateMutability": "nonpayable",
      "type": "function"
    },
    {
      "inputs": [],
      "name": "getProducts",
      "outputs": [
        {
          "components": [
            {
              "internalType": "string",
              "name": "product_hash",
              "type": "string"
            },
            {
              "internalType": "string",
              "name": "brand",
              "type": "string"
            },
            {
              "internalType": "string",
              "name": "model",
              "type": "string"
            },
            {
              "internalType": "string",
              "name": "weight",
              "type": "string"
            },
            {
              "internalType": "string",
              "name": "dimension",
              "type": "string"
            },
            {
              "internalType": "string",
              "name": "camera_pixel",
              "type": "string"
            },
            {
              "internalType": "string",
              "name": "battery_lifetime",
              "type": "string"
            },
            {
              "internalType": "string",
              "name": "wireless_range",
              "type": "string"
            },
            {
              "internalType": "string",
              "name": "manufacturing_date",
              "type": "string"
            },
            {
              "internalType": "string",
              "name": "manufacturing_location",
              "type": "string"
            }
          ],
          "internalType": "struct ProductVerification.product_bundle[]",
          "name": "",
          "type": "tuple[]"
        }
      ],
      "stateMutability": "view",
      "type": "function",
      "constant": true
    },
    {
      "inputs": [
        {
          "internalType": "address",
          "name": "_owner",
          "type": "address"
        }
      ],
      "name": "myProducts",
      "outputs": [
        {
          "components": [
            {
              "internalType": "uint256",
              "name": "product_id",
              "type": "uint256"
            },
            {
              "internalType": "string",
              "name": "product_hash",
              "type": "string"
            },
            {
              "internalType": "string",
              "name": "brand",
              "type": "string"
            },
            {
              "internalType": "string",
              "name": "model",
              "type": "string"
            },
            {
              "internalType": "string",
              "name": "weight",
              "type": "string"
            },
            {
              "internalType": "string",
              "name": "dimension",
              "type": "string"
            },
            {
              "internalType": "string",
              "name": "camera_pixel",
              "type": "string"
            },
            {
              "internalType": "string",
              "name": "battery_lifetime",
              "type": "string"
            },
            {
              "internalType": "string",
              "name": "wireless_range",
              "type": "string"
            },
            {
              "internalType": "string",
              "name": "manufacturing_date",
              "type": "string"
            },
            {
              "internalType": "string",
              "name": "manufacturing_location",
              "type": "string"
            }
          ],
          "internalType": "struct ProductVerification.product[]",
          "name": "",
          "type": "tuple[]"
        }
      ],
      "stateMutability": "view",
      "type": "function",
      "constant": true
    },
    {
      "inputs": [
        {
          "internalType": "uint256",
          "name": "_product_id",
          "type": "uint256"
        }
      ],
      "name": "getProductHash",
      "outputs": [
        {
          "internalType": "string",
          "name": "",
          "type": "string"
        }
      ],
      "stateMutability": "view",
      "type": "function",
      "constant": true
    }
  ],
  "bytecode": "0x608060405234801561001057600080fd5b50336000806101000a81548173ffffffffffffffffffffffffffffffffffffffff021916908373ffffffffffffffffffffffffffffffffffffffff16021790555061005f61006460201b60201c565b61006e565b6000600181905550565b6120278061007d6000396000f3fe608060405234801561001057600080fd5b50600436106100625760003560e01c80639d58f0da14610067578063b80b80a014610097578063c29b2f20146100a1578063c4975390146100bf578063cb44c5f3146100db578063df8c5280146100f9575b600080fd5b610081600480360361007c919081019061199e565b610129565b60405161008e9190611e0f565b60405180910390f35b61009f61026a565b005b6100a9610274565b6040516100b69190611ded565b60405180910390f35b6100d960048036036100d491908101906117d3565b610b2f565b005b6100e3610d6d565b6040516100f09190611db0565b60405180910390f35b610113600480360361010e91908101906117aa565b610d92565b6040516101209190611dcb565b60405180910390f35b606060005b600380549050816fffffffffffffffffffffffffffffffff16101561026357826003826fffffffffffffffffffffffffffffffff168154811061016d57fe5b90600052602060002090600b0201600001541415610256576003816fffffffffffffffffffffffffffffffff16815481106101a457fe5b90600052602060002090600b02016001018054600181600116156101000203166002900480601f0160208091040260200160405190810160405280929190818152602001828054600181600116156101000203166002900480156102495780601f1061021e57610100808354040283529160200191610249565b820191906000526020600020905b81548152906001019060200180831161022c57829003601f168201915b5050505050915050610265565b808060010191505061012e565b505b919050565b6000600181905550565b6060806003805490506040519080825280602002602001820160405280156102b657816020015b6102a36115da565b81526020019060019003908161029b5790505b50905060005b600380549050816fffffffffffffffffffffffffffffffff161015610b27576040518061014001604052806003836fffffffffffffffffffffffffffffffff168154811061030657fe5b90600052602060002090600b02016001018054600181600116156101000203166002900480601f0160208091040260200160405190810160405280929190818152602001828054600181600116156101000203166002900480156103ab5780601f10610380576101008083540402835291602001916103ab565b820191906000526020600020905b81548152906001019060200180831161038e57829003601f168201915b505050505081526020016003836fffffffffffffffffffffffffffffffff16815481106103d457fe5b90600052602060002090600b02016002018054600181600116156101000203166002900480601f0160208091040260200160405190810160405280929190818152602001828054600181600116156101000203166002900480156104795780601f1061044e57610100808354040283529160200191610479565b820191906000526020600020905b81548152906001019060200180831161045c57829003601f168201915b505050505081526020016003836fffffffffffffffffffffffffffffffff16815481106104a257fe5b90600052602060002090600b02016003018054600181600116156101000203166002900480601f0160208091040260200160405190810160405280929190818152602001828054600181600116156101000203166002900480156105475780601f1061051c57610100808354040283529160200191610547565b820191906000526020600020905b81548152906001019060200180831161052a57829003601f168201915b505050505081526020016003836fffffffffffffffffffffffffffffffff168154811061057057fe5b90600052602060002090600b02016004018054600181600116156101000203166002900480601f0160208091040260200160405190810160405280929190818152602001828054600181600116156101000203166002900480156106155780601f106105ea57610100808354040283529160200191610615565b820191906000526020600020905b8154815290600101906020018083116105f857829003601f168201915b505050505081526020016003836fffffffffffffffffffffffffffffffff168154811061063e57fe5b90600052602060002090600b02016005018054600181600116156101000203166002900480601f0160208091040260200160405190810160405280929190818152602001828054600181600116156101000203166002900480156106e35780601f106106b8576101008083540402835291602001916106e3565b820191906000526020600020905b8154815290600101906020018083116106c657829003601f168201915b505050505081526020016003836fffffffffffffffffffffffffffffffff168154811061070c57fe5b90600052602060002090600b02016006018054600181600116156101000203166002900480601f0160208091040260200160405190810160405280929190818152602001828054600181600116156101000203166002900480156107b15780601f10610786576101008083540402835291602001916107b1565b820191906000526020600020905b81548152906001019060200180831161079457829003601f168201915b505050505081526020016003836fffffffffffffffffffffffffffffffff16815481106107da57fe5b90600052602060002090600b02016007018054600181600116156101000203166002900480601f01602080910402602001604051908101604052809291908181526020018280546001816001161561010002031660029004801561087f5780601f106108545761010080835404028352916020019161087f565b820191906000526020600020905b81548152906001019060200180831161086257829003601f168201915b505050505081526020016003836fffffffffffffffffffffffffffffffff16815481106108a857fe5b90600052602060002090600b02016008018054600181600116156101000203166002900480601f01602080910402602001604051908101604052809291908181526020018280546001816001161561010002031660029004801561094d5780601f106109225761010080835404028352916020019161094d565b820191906000526020600020905b81548152906001019060200180831161093057829003601f168201915b505050505081526020016003836fffffffffffffffffffffffffffffffff168154811061097657fe5b90600052602060002090600b02016009018054600181600116156101000203166002900480601f016020809104026020016040519081016040528092919081815260200182805460018160011615610100020316600290048015610a1b5780601f106109f057610100808354040283529160200191610a1b565b820191906000526020600020905b8154815290600101906020018083116109fe57829003601f168201915b505050505081526020016003836fffffffffffffffffffffffffffffffff1681548110610a4457fe5b90600052602060002090600b0201600a018054600181600116156101000203166002900480601f016020809104026020016040519081016040528092919081815260200182805460018160011615610100020316600290048015610ae95780601f10610abe57610100808354040283529160200191610ae9565b820191906000526020600020905b815481529060010190602001808311610acc57829003601f168201915b505050505081525082826fffffffffffffffffffffffffffffffff1681518110610b0f57fe5b602002602001018190525080806001019150506102bc565b508091505090565b6003604051806101600160405280600160008154809291906001019190505581526020018c81526020018b81526020018a81526020018981526020018881526020018781526020018681526020018581526020018481526020018381525090806001815401808255809150506001900390600052602060002090600b0201600090919091909150600082015181600001556020820151816001019080519060200190610bdc92919061162d565b506040820151816002019080519060200190610bf992919061162d565b506060820151816003019080519060200190610c1692919061162d565b506080820151816004019080519060200190610c3392919061162d565b5060a0820151816005019080519060200190610c5092919061162d565b5060c0820151816006019080519060200190610c6d92919061162d565b5060e0820151816007019080519060200190610c8a92919061162d565b50610100820151816008019080519060200190610ca892919061162d565b50610120820151816009019080519060200190610cc692919061162d565b5061014082015181600a019080519060200190610ce492919061162d565b505050600260003373ffffffffffffffffffffffffffffffffffffffff1673ffffffffffffffffffffffffffffffffffffffff168152602001908152602001600020600060018152602001908152602001600020600154908060018154018082558091505060019003906000526020600020016000909190919091505550505050505050505050565b6000809054906101000a900473ffffffffffffffffffffffffffffffffffffffff1681565b606080600260008473ffffffffffffffffffffffffffffffffffffffff1673ffffffffffffffffffffffffffffffffffffffff16815260200190815260200160002060006001815260200190815260200160002080549050604051908082528060200260200182016040528015610e2357816020015b610e106116ad565b815260200190600190039081610e085790505b50905060008090505b600260008573ffffffffffffffffffffffffffffffffffffffff1673ffffffffffffffffffffffffffffffffffffffff16815260200190815260200160002060006001815260200190815260200160002080549050816fffffffffffffffffffffffffffffffff1610156115d05760036001600260008773ffffffffffffffffffffffffffffffffffffffff1673ffffffffffffffffffffffffffffffffffffffff168152602001908152602001600020600060018152602001908152602001600020836fffffffffffffffffffffffffffffffff1681548110610f0c57fe5b90600052602060002001540381548110610f2257fe5b90600052602060002090600b02016040518061016001604052908160008201548152602001600182018054600181600116156101000203166002900480601f016020809104026020016040519081016040528092919081815260200182805460018160011615610100020316600290048015610fdf5780601f10610fb457610100808354040283529160200191610fdf565b820191906000526020600020905b815481529060010190602001808311610fc257829003601f168201915b50505050508152602001600282018054600181600116156101000203166002900480601f0160208091040260200160405190810160405280929190818152602001828054600181600116156101000203166002900480156110815780601f1061105657610100808354040283529160200191611081565b820191906000526020600020905b81548152906001019060200180831161106457829003601f168201915b50505050508152602001600382018054600181600116156101000203166002900480601f0160208091040260200160405190810160405280929190818152602001828054600181600116156101000203166002900480156111235780601f106110f857610100808354040283529160200191611123565b820191906000526020600020905b81548152906001019060200180831161110657829003601f168201915b50505050508152602001600482018054600181600116156101000203166002900480601f0160208091040260200160405190810160405280929190818152602001828054600181600116156101000203166002900480156111c55780601f1061119a576101008083540402835291602001916111c5565b820191906000526020600020905b8154815290600101906020018083116111a857829003601f168201915b50505050508152602001600582018054600181600116156101000203166002900480601f0160208091040260200160405190810160405280929190818152602001828054600181600116156101000203166002900480156112675780601f1061123c57610100808354040283529160200191611267565b820191906000526020600020905b81548152906001019060200180831161124a57829003601f168201915b50505050508152602001600682018054600181600116156101000203166002900480601f0160208091040260200160405190810160405280929190818152602001828054600181600116156101000203166002900480156113095780601f106112de57610100808354040283529160200191611309565b820191906000526020600020905b8154815290600101906020018083116112ec57829003601f168201915b50505050508152602001600782018054600181600116156101000203166002900480601f0160208091040260200160405190810160405280929190818152602001828054600181600116156101000203166002900480156113ab5780601f10611380576101008083540402835291602001916113ab565b820191906000526020600020905b81548152906001019060200180831161138e57829003601f168201915b50505050508152602001600882018054600181600116156101000203166002900480601f01602080910402602001604051908101604052809291908181526020018280546001816001161561010002031660029004801561144d5780601f106114225761010080835404028352916020019161144d565b820191906000526020600020905b81548152906001019060200180831161143057829003601f168201915b50505050508152602001600982018054600181600116156101000203166002900480601f0160208091040260200160405190810160405280929190818152602001828054600181600116156101000203166002900480156114ef5780601f106114c4576101008083540402835291602001916114ef565b820191906000526020600020905b8154815290600101906020018083116114d257829003601f168201915b50505050508152602001600a82018054600181600116156101000203166002900480601f0160208091040260200160405190810160405280929190818152602001828054600181600116156101000203166002900480156115915780601f1061156657610100808354040283529160200191611591565b820191906000526020600020905b81548152906001019060200180831161157457829003601f168201915b50505050508152505082826fffffffffffffffffffffffffffffffff16815181106115b857fe5b60200260200101819052508080600101915050610e2c565b5080915050919050565b604051806101400160405280606081526020016060815260200160608152602001606081526020016060815260200160608152602001606081526020016060815260200160608152602001606081525090565b828054600181600116156101000203166002900490600052602060002090601f016020900481019282601f1061166e57805160ff191683800117855561169c565b8280016001018555821561169c579182015b8281111561169b578251825591602001919060010190611680565b5b5090506116a99190611707565b5090565b60405180610160016040528060008152602001606081526020016060815260200160608152602001606081526020016060815260200160608152602001606081526020016060815260200160608152602001606081525090565b61172991905b8082111561172557600081600090555060010161170d565b5090565b90565b60008135905061173b81611fc3565b92915050565b600082601f83011261175257600080fd5b813561176561176082611e5e565b611e31565b9150808252602083016020830185838301111561178157600080fd5b61178c838284611f70565b50505092915050565b6000813590506117a481611fda565b92915050565b6000602082840312156117bc57600080fd5b60006117ca8482850161172c565b91505092915050565b6000806000806000806000806000806101408b8d0312156117f357600080fd5b60008b013567ffffffffffffffff81111561180d57600080fd5b6118198d828e01611741565b9a505060208b013567ffffffffffffffff81111561183657600080fd5b6118428d828e01611741565b99505060408b013567ffffffffffffffff81111561185f57600080fd5b61186b8d828e01611741565b98505060608b013567ffffffffffffffff81111561188857600080fd5b6118948d828e01611741565b97505060808b013567ffffffffffffffff8111156118b157600080fd5b6118bd8d828e01611741565b96505060a08b013567ffffffffffffffff8111156118da57600080fd5b6118e68d828e01611741565b95505060c08b013567ffffffffffffffff81111561190357600080fd5b61190f8d828e01611741565b94505060e08b013567ffffffffffffffff81111561192c57600080fd5b6119388d828e01611741565b9350506101008b013567ffffffffffffffff81111561195657600080fd5b6119628d828e01611741565b9250506101208b013567ffffffffffffffff81111561198057600080fd5b61198c8d828e01611741565b9150509295989b9194979a5092959850565b6000602082840312156119b057600080fd5b60006119be84828501611795565b91505092915050565b60006119d38383611b5a565b905092915050565b60006119e78383611c88565b905092915050565b6119f881611f34565b82525050565b6000611a0982611eaa565b611a138185611ef0565b935083602082028501611a2585611e8a565b8060005b85811015611a615784840389528151611a4285826119c7565b9450611a4d83611ed6565b925060208a01995050600181019050611a29565b50829750879550505050505092915050565b6000611a7e82611eb5565b611a888185611f01565b935083602082028501611a9a85611e9a565b8060005b85811015611ad65784840389528151611ab785826119db565b9450611ac283611ee3565b925060208a01995050600181019050611a9e565b50829750879550505050505092915050565b6000611af382611ecb565b611afd8185611f23565b9350611b0d818560208601611f7f565b611b1681611fb2565b840191505092915050565b6000611b2c82611ec0565b611b368185611f12565b9350611b46818560208601611f7f565b611b4f81611fb2565b840191505092915050565b600061016083016000830151611b736000860182611da1565b5060208301518482036020860152611b8b8282611b21565b91505060408301518482036040860152611ba58282611b21565b91505060608301518482036060860152611bbf8282611b21565b91505060808301518482036080860152611bd98282611b21565b91505060a083015184820360a0860152611bf38282611b21565b91505060c083015184820360c0860152611c0d8282611b21565b91505060e083015184820360e0860152611c278282611b21565b915050610100830151848203610100860152611c438282611b21565b915050610120830151848203610120860152611c5f8282611b21565b915050610140830151848203610140860152611c7b8282611b21565b9150508091505092915050565b6000610140830160008301518482036000860152611ca68282611b21565b91505060208301518482036020860152611cc08282611b21565b91505060408301518482036040860152611cda8282611b21565b91505060608301518482036060860152611cf48282611b21565b91505060808301518482036080860152611d0e8282611b21565b91505060a083015184820360a0860152611d288282611b21565b91505060c083015184820360c0860152611d428282611b21565b91505060e083015184820360e0860152611d5c8282611b21565b915050610100830151848203610100860152611d788282611b21565b915050610120830151848203610120860152611d948282611b21565b9150508091505092915050565b611daa81611f66565b82525050565b6000602082019050611dc560008301846119ef565b92915050565b60006020820190508181036000830152611de581846119fe565b905092915050565b60006020820190508181036000830152611e078184611a73565b905092915050565b60006020820190508181036000830152611e298184611ae8565b905092915050565b6000604051905081810181811067ffffffffffffffff82111715611e5457600080fd5b8060405250919050565b600067ffffffffffffffff821115611e7557600080fd5b601f19601f8301169050602081019050919050565b6000819050602082019050919050565b6000819050602082019050919050565b600081519050919050565b600081519050919050565b600081519050919050565b600081519050919050565b6000602082019050919050565b6000602082019050919050565b600082825260208201905092915050565b600082825260208201905092915050565b600082825260208201905092915050565b600082825260208201905092915050565b6000611f3f82611f46565b9050919050565b600073ffffffffffffffffffffffffffffffffffffffff82169050919050565b6000819050919050565b82818337600083830152505050565b60005b83811015611f9d578082015181840152602081019050611f82565b83811115611fac576000848401525b50505050565b6000601f19601f8301169050919050565b611fcc81611f34565b8114611fd757600080fd5b50565b611fe381611f66565b8114611fee57600080fd5b5056fea2646970667358221220d201ea1b9b9614de5c78ba4c6ceedc7a37f7d27d73ae7880030cc474df007cb064736f6c63430006030033",
  "source": "pragma solidity ^0.6.3;\npragma experimental ABIEncoderV2;\n\ncontract  ProductVerification{\n    address public contractOwnerAddress;\n    uint256 product_id_generator;\n\n\n    mapping(address => mapping(uint256 => uint256[]))personal; \n    product[] product_listing;\n\n\n    struct product{\n        uint256 product_id;\n        string product_hash ;\n        string brand;\n        string model;\n        string weight;\n        string dimension;\n        string camera_pixel;\n        string battery_lifetime;\n        string wireless_range;\n        string manufacturing_date;\n        string manufacturing_location;\n    }\n    \n    struct product_bundle{\n        string product_hash;\n        string brand;\n        string model;\n        string weight;\n        string dimension;\n        string camera_pixel;\n        string battery_lifetime;\n        string wireless_range;\n        string manufacturing_date;\n        string manufacturing_location;\n    }\n\n    constructor() public{\n        contractOwnerAddress = msg.sender;\n        initiate_ids();\n    }\n\n    function initiate_ids() public{\n        product_id_generator = 0;\n\n    }\n\n    function createproduct(string memory _product_hash, \n                            string memory _brand,\n                            string memory _model,\n                            string memory _weight,\n                            string memory _dimension,\n                            string memory _camera_pixel,\n                            string memory _battery_lifetime,\n                            string memory _wireless_range,\n                            string memory _manufacturing_date,\n                            string memory _manufacturing_location) public {\n            \n            product_listing.push(product(product_id_generator++,\n                                        _product_hash, \n                                        _brand,\n                                        _model,\n                                        _weight,\n                                        _dimension,\n                                        _camera_pixel,\n                                        _battery_lifetime,\n                                        _wireless_range,\n                                        _manufacturing_date,\n                                        _manufacturing_location));\n\n            personal[msg.sender][1].push(product_id_generator);\n        }\n\n\n\n\n    function getProducts() public view returns(product_bundle[] memory){\n        product_bundle[] memory temp = new product_bundle[](product_listing.length);\n        for(uint128 i; i < product_listing.length;i++){\n            temp[i] = product_bundle(product_listing[i].product_hash,\n                                        product_listing[i].brand,\n                                        product_listing[i].model,\n                                        product_listing[i].weight,\n                                        product_listing[i].dimension,\n                                        product_listing[i].camera_pixel,\n                                        product_listing[i].battery_lifetime,\n                                        product_listing[i].wireless_range,\n                                        product_listing[i].manufacturing_date,\n                                        product_listing[i].manufacturing_location\n                                        );\n        }\n        return temp;\n    }\n\n    function myProducts(address _owner)public view returns(product[] memory){\n        product[] memory temp1 = new product[](personal[_owner][1].length);\n        for(uint128 i=0; i < personal[_owner][1].length ; i++){\n            temp1[i] = product_listing[personal[_owner][1][i]-1];\n        }\n        return temp1;\n    }\n\n    function getProductHash(uint256 _product_id) public view returns(string memory){\n        for(uint128 i; i < product_listing.length ;i++){\n            if(product_listing[i].product_id == _product_id){\n                return product_listing[i].product_hash;\n            }\n        }\n        //return address(0);\n    }\n\n\n }\n ",
  "sourcePath": "/home/user/dev/www/Block-chain/Block_chain_UI_Project/blockchain-asli-check/reactjs_code/contracts/Coin.sol",
  "compiler": {
    "name": "solc",
    "version": "0.6.3+commit.8dda9521.Emscripten.clang"
  },
  "schemaVersion": "3.0.23",
  "updatedAt": "2020-03-20T11:12:15.247Z",
  "networkType": "ethereum",
  "devdoc": {
    "methods": {}
  },
  "userdoc": {
    "methods": {}
  }
}