{
  "contractName": "ProductVerification",
  "abi": [
    {
      "inputs": [],
      "stateMutability": "nonpayable",
      "type": "constructor"
    },
    {
      "inputs": [],
      "name": "contractOwnerAddress",
      "outputs": [
        {
          "internalType": "address",
          "name": "",
          "type": "address"
        }
      ],
      "stateMutability": "view",
      "type": "function",
      "constant": true
    },
    {
      "inputs": [],
      "name": "initiate_ids",
      "outputs": [],
      "stateMutability": "nonpayable",
      "type": "function"
    },
    {
      "inputs": [
        {
          "internalType": "string",
          "name": "_product_hash",
          "type": "string"
        },
        {
          "internalType": "string",
          "name": "_product_uns",
          "type": "string"
        },
        {
          "internalType": "string",
          "name": "_product_name",
          "type": "string"
        },
        {
          "internalType": "string",
          "name": "_weight",
          "type": "string"
        },
        {
          "internalType": "string",
          "name": "_packing_dimension",
          "type": "string"
        },
        {
          "internalType": "string",
          "name": "_expiry_date",
          "type": "string"
        },
        {
          "internalType": "string",
          "name": "_manufacturing_date",
          "type": "string"
        },
        {
          "internalType": "string",
          "name": "_manufacturing_location",
          "type": "string"
        },
        {
          "internalType": "string",
          "name": "_manufacturing_batchid",
          "type": "string"
        }
      ],
      "name": "createproduct",
      "outputs": [],
      "stateMutability": "nonpayable",
      "type": "function"
    },
    {
      "inputs": [],
      "name": "getProducts",
      "outputs": [
        {
          "components": [
            {
              "internalType": "string",
              "name": "product_hash",
              "type": "string"
            },
            {
              "internalType": "string",
              "name": "product_uns",
              "type": "string"
            },
            {
              "internalType": "string",
              "name": "product_name",
              "type": "string"
            },
            {
              "internalType": "string",
              "name": "weight",
              "type": "string"
            },
            {
              "internalType": "string",
              "name": "packing_dimension",
              "type": "string"
            },
            {
              "internalType": "string",
              "name": "expiry_date",
              "type": "string"
            },
            {
              "internalType": "string",
              "name": "manufacturing_date",
              "type": "string"
            },
            {
              "internalType": "string",
              "name": "manufacturing_location",
              "type": "string"
            },
            {
              "internalType": "string",
              "name": "manufacturing_batchid",
              "type": "string"
            }
          ],
          "internalType": "struct ProductVerification.product_bundle[]",
          "name": "",
          "type": "tuple[]"
        }
      ],
      "stateMutability": "view",
      "type": "function",
      "constant": true
    },
    {
      "inputs": [
        {
          "internalType": "address",
          "name": "_owner",
          "type": "address"
        }
      ],
      "name": "myProducts",
      "outputs": [
        {
          "components": [
            {
              "internalType": "uint256",
              "name": "product_id",
              "type": "uint256"
            },
            {
              "internalType": "string",
              "name": "product_hash",
              "type": "string"
            },
            {
              "internalType": "string",
              "name": "product_uns",
              "type": "string"
            },
            {
              "internalType": "string",
              "name": "product_name",
              "type": "string"
            },
            {
              "internalType": "string",
              "name": "weight",
              "type": "string"
            },
            {
              "internalType": "string",
              "name": "packing_dimension",
              "type": "string"
            },
            {
              "internalType": "string",
              "name": "expiry_date",
              "type": "string"
            },
            {
              "internalType": "string",
              "name": "manufacturing_date",
              "type": "string"
            },
            {
              "internalType": "string",
              "name": "manufacturing_location",
              "type": "string"
            },
            {
              "internalType": "string",
              "name": "manufacturing_batchid",
              "type": "string"
            }
          ],
          "internalType": "struct ProductVerification.product[]",
          "name": "",
          "type": "tuple[]"
        }
      ],
      "stateMutability": "view",
      "type": "function",
      "constant": true
    },
    {
      "inputs": [
        {
          "internalType": "uint256",
          "name": "_product_id",
          "type": "uint256"
        }
      ],
      "name": "getProductHash",
      "outputs": [
        {
          "internalType": "string",
          "name": "",
          "type": "string"
        }
      ],
      "stateMutability": "view",
      "type": "function",
      "constant": true
    }
  ],
  "bytecode": "0x608060405234801561001057600080fd5b50336000806101000a81548173ffffffffffffffffffffffffffffffffffffffff021916908373ffffffffffffffffffffffffffffffffffffffff16021790555061005f61006460201b60201c565b61006e565b6000600181905550565b611e1f8061007d6000396000f3fe608060405234801561001057600080fd5b50600436106100625760003560e01c8063886378b4146100675780639d58f0da14610083578063b80b80a0146100b3578063c29b2f20146100bd578063cb44c5f3146100db578063df8c5280146100f9575b600080fd5b610081600480360361007c9190810190611630565b610129565b005b61009d600480360361009891908101906117ce565b610342565b6040516100aa9190611c07565b60405180910390f35b6100bb610483565b005b6100c561048d565b6040516100d29190611be5565b60405180910390f35b6100e3610c7a565b6040516100f09190611ba8565b60405180910390f35b610113600480360361010e9190810190611607565b610c9f565b6040516101209190611bc3565b60405180910390f35b6003604051806101400160405280600160008154809291906001019190505581526020018b81526020018a81526020018981526020018881526020018781526020018681526020018581526020018481526020018381525090806001815401808255809150506001900390600052602060002090600a02016000909190919091506000820151816000015560208201518160010190805190602001906101d0929190611445565b5060408201518160020190805190602001906101ed929190611445565b50606082015181600301908051906020019061020a929190611445565b506080820151816004019080519060200190610227929190611445565b5060a0820151816005019080519060200190610244929190611445565b5060c0820151816006019080519060200190610261929190611445565b5060e082015181600701908051906020019061027e929190611445565b5061010082015181600801908051906020019061029c929190611445565b506101208201518160090190805190602001906102ba929190611445565b505050600260003373ffffffffffffffffffffffffffffffffffffffff1673ffffffffffffffffffffffffffffffffffffffff1681526020019081526020016000206000600181526020019081526020016000206001549080600181540180825580915050600190039060005260206000200160009091909190915055505050505050505050565b606060005b600380549050816fffffffffffffffffffffffffffffffff16101561047c57826003826fffffffffffffffffffffffffffffffff168154811061038657fe5b90600052602060002090600a020160000154141561046f576003816fffffffffffffffffffffffffffffffff16815481106103bd57fe5b90600052602060002090600a02016001018054600181600116156101000203166002900480601f0160208091040260200160405190810160405280929190818152602001828054600181600116156101000203166002900480156104625780601f1061043757610100808354040283529160200191610462565b820191906000526020600020905b81548152906001019060200180831161044557829003601f168201915b505050505091505061047e565b8080600101915050610347565b505b919050565b6000600181905550565b6060806003805490506040519080825280602002602001820160405280156104cf57816020015b6104bc6114c5565b8152602001906001900390816104b45790505b50905060005b600380549050816fffffffffffffffffffffffffffffffff161015610c72576040518061012001604052806003836fffffffffffffffffffffffffffffffff168154811061051f57fe5b90600052602060002090600a02016001018054600181600116156101000203166002900480601f0160208091040260200160405190810160405280929190818152602001828054600181600116156101000203166002900480156105c45780601f10610599576101008083540402835291602001916105c4565b820191906000526020600020905b8154815290600101906020018083116105a757829003601f168201915b505050505081526020016003836fffffffffffffffffffffffffffffffff16815481106105ed57fe5b90600052602060002090600a02016002018054600181600116156101000203166002900480601f0160208091040260200160405190810160405280929190818152602001828054600181600116156101000203166002900480156106925780601f1061066757610100808354040283529160200191610692565b820191906000526020600020905b81548152906001019060200180831161067557829003601f168201915b505050505081526020016003836fffffffffffffffffffffffffffffffff16815481106106bb57fe5b90600052602060002090600a02016003018054600181600116156101000203166002900480601f0160208091040260200160405190810160405280929190818152602001828054600181600116156101000203166002900480156107605780601f1061073557610100808354040283529160200191610760565b820191906000526020600020905b81548152906001019060200180831161074357829003601f168201915b505050505081526020016003836fffffffffffffffffffffffffffffffff168154811061078957fe5b90600052602060002090600a02016004018054600181600116156101000203166002900480601f01602080910402602001604051908101604052809291908181526020018280546001816001161561010002031660029004801561082e5780601f106108035761010080835404028352916020019161082e565b820191906000526020600020905b81548152906001019060200180831161081157829003601f168201915b505050505081526020016003836fffffffffffffffffffffffffffffffff168154811061085757fe5b90600052602060002090600a02016005018054600181600116156101000203166002900480601f0160208091040260200160405190810160405280929190818152602001828054600181600116156101000203166002900480156108fc5780601f106108d1576101008083540402835291602001916108fc565b820191906000526020600020905b8154815290600101906020018083116108df57829003601f168201915b505050505081526020016003836fffffffffffffffffffffffffffffffff168154811061092557fe5b90600052602060002090600a02016006018054600181600116156101000203166002900480601f0160208091040260200160405190810160405280929190818152602001828054600181600116156101000203166002900480156109ca5780601f1061099f576101008083540402835291602001916109ca565b820191906000526020600020905b8154815290600101906020018083116109ad57829003601f168201915b505050505081526020016003836fffffffffffffffffffffffffffffffff16815481106109f357fe5b90600052602060002090600a02016007018054600181600116156101000203166002900480601f016020809104026020016040519081016040528092919081815260200182805460018160011615610100020316600290048015610a985780601f10610a6d57610100808354040283529160200191610a98565b820191906000526020600020905b815481529060010190602001808311610a7b57829003601f168201915b505050505081526020016003836fffffffffffffffffffffffffffffffff1681548110610ac157fe5b90600052602060002090600a02016008018054600181600116156101000203166002900480601f016020809104026020016040519081016040528092919081815260200182805460018160011615610100020316600290048015610b665780601f10610b3b57610100808354040283529160200191610b66565b820191906000526020600020905b815481529060010190602001808311610b4957829003601f168201915b505050505081526020016003836fffffffffffffffffffffffffffffffff1681548110610b8f57fe5b90600052602060002090600a02016009018054600181600116156101000203166002900480601f016020809104026020016040519081016040528092919081815260200182805460018160011615610100020316600290048015610c345780601f10610c0957610100808354040283529160200191610c34565b820191906000526020600020905b815481529060010190602001808311610c1757829003601f168201915b505050505081525082826fffffffffffffffffffffffffffffffff1681518110610c5a57fe5b602002602001018190525080806001019150506104d5565b508091505090565b6000809054906101000a900473ffffffffffffffffffffffffffffffffffffffff1681565b606080600260008473ffffffffffffffffffffffffffffffffffffffff1673ffffffffffffffffffffffffffffffffffffffff16815260200190815260200160002060006001815260200190815260200160002080549050604051908082528060200260200182016040528015610d3057816020015b610d1d611511565b815260200190600190039081610d155790505b50905060008090505b600260008573ffffffffffffffffffffffffffffffffffffffff1673ffffffffffffffffffffffffffffffffffffffff16815260200190815260200160002060006001815260200190815260200160002080549050816fffffffffffffffffffffffffffffffff16101561143b5760036001600260008773ffffffffffffffffffffffffffffffffffffffff1673ffffffffffffffffffffffffffffffffffffffff168152602001908152602001600020600060018152602001908152602001600020836fffffffffffffffffffffffffffffffff1681548110610e1957fe5b90600052602060002001540381548110610e2f57fe5b90600052602060002090600a02016040518061014001604052908160008201548152602001600182018054600181600116156101000203166002900480601f016020809104026020016040519081016040528092919081815260200182805460018160011615610100020316600290048015610eec5780601f10610ec157610100808354040283529160200191610eec565b820191906000526020600020905b815481529060010190602001808311610ecf57829003601f168201915b50505050508152602001600282018054600181600116156101000203166002900480601f016020809104026020016040519081016040528092919081815260200182805460018160011615610100020316600290048015610f8e5780601f10610f6357610100808354040283529160200191610f8e565b820191906000526020600020905b815481529060010190602001808311610f7157829003601f168201915b50505050508152602001600382018054600181600116156101000203166002900480601f0160208091040260200160405190810160405280929190818152602001828054600181600116156101000203166002900480156110305780601f1061100557610100808354040283529160200191611030565b820191906000526020600020905b81548152906001019060200180831161101357829003601f168201915b50505050508152602001600482018054600181600116156101000203166002900480601f0160208091040260200160405190810160405280929190818152602001828054600181600116156101000203166002900480156110d25780601f106110a7576101008083540402835291602001916110d2565b820191906000526020600020905b8154815290600101906020018083116110b557829003601f168201915b50505050508152602001600582018054600181600116156101000203166002900480601f0160208091040260200160405190810160405280929190818152602001828054600181600116156101000203166002900480156111745780601f1061114957610100808354040283529160200191611174565b820191906000526020600020905b81548152906001019060200180831161115757829003601f168201915b50505050508152602001600682018054600181600116156101000203166002900480601f0160208091040260200160405190810160405280929190818152602001828054600181600116156101000203166002900480156112165780601f106111eb57610100808354040283529160200191611216565b820191906000526020600020905b8154815290600101906020018083116111f957829003601f168201915b50505050508152602001600782018054600181600116156101000203166002900480601f0160208091040260200160405190810160405280929190818152602001828054600181600116156101000203166002900480156112b85780601f1061128d576101008083540402835291602001916112b8565b820191906000526020600020905b81548152906001019060200180831161129b57829003601f168201915b50505050508152602001600882018054600181600116156101000203166002900480601f01602080910402602001604051908101604052809291908181526020018280546001816001161561010002031660029004801561135a5780601f1061132f5761010080835404028352916020019161135a565b820191906000526020600020905b81548152906001019060200180831161133d57829003601f168201915b50505050508152602001600982018054600181600116156101000203166002900480601f0160208091040260200160405190810160405280929190818152602001828054600181600116156101000203166002900480156113fc5780601f106113d1576101008083540402835291602001916113fc565b820191906000526020600020905b8154815290600101906020018083116113df57829003601f168201915b50505050508152505082826fffffffffffffffffffffffffffffffff168151811061142357fe5b60200260200101819052508080600101915050610d39565b5080915050919050565b828054600181600116156101000203166002900490600052602060002090601f016020900481019282601f1061148657805160ff19168380011785556114b4565b828001600101855582156114b4579182015b828111156114b3578251825591602001919060010190611498565b5b5090506114c19190611564565b5090565b6040518061012001604052806060815260200160608152602001606081526020016060815260200160608152602001606081526020016060815260200160608152602001606081525090565b604051806101400160405280600081526020016060815260200160608152602001606081526020016060815260200160608152602001606081526020016060815260200160608152602001606081525090565b61158691905b8082111561158257600081600090555060010161156a565b5090565b90565b60008135905061159881611dbb565b92915050565b600082601f8301126115af57600080fd5b81356115c26115bd82611c56565b611c29565b915080825260208301602083018583830111156115de57600080fd5b6115e9838284611d68565b50505092915050565b60008135905061160181611dd2565b92915050565b60006020828403121561161957600080fd5b600061162784828501611589565b91505092915050565b60008060008060008060008060006101208a8c03121561164f57600080fd5b60008a013567ffffffffffffffff81111561166957600080fd5b6116758c828d0161159e565b99505060208a013567ffffffffffffffff81111561169257600080fd5b61169e8c828d0161159e565b98505060408a013567ffffffffffffffff8111156116bb57600080fd5b6116c78c828d0161159e565b97505060608a013567ffffffffffffffff8111156116e457600080fd5b6116f08c828d0161159e565b96505060808a013567ffffffffffffffff81111561170d57600080fd5b6117198c828d0161159e565b95505060a08a013567ffffffffffffffff81111561173657600080fd5b6117428c828d0161159e565b94505060c08a013567ffffffffffffffff81111561175f57600080fd5b61176b8c828d0161159e565b93505060e08a013567ffffffffffffffff81111561178857600080fd5b6117948c828d0161159e565b9250506101008a013567ffffffffffffffff8111156117b257600080fd5b6117be8c828d0161159e565b9150509295985092959850929598565b6000602082840312156117e057600080fd5b60006117ee848285016115f2565b91505092915050565b6000611803838361198a565b905092915050565b60006118178383611a9c565b905092915050565b61182881611d2c565b82525050565b600061183982611ca2565b6118438185611ce8565b93508360208202850161185585611c82565b8060005b85811015611891578484038952815161187285826117f7565b945061187d83611cce565b925060208a01995050600181019050611859565b50829750879550505050505092915050565b60006118ae82611cad565b6118b88185611cf9565b9350836020820285016118ca85611c92565b8060005b8581101561190657848403895281516118e7858261180b565b94506118f283611cdb565b925060208a019950506001810190506118ce565b50829750879550505050505092915050565b600061192382611cc3565b61192d8185611d1b565b935061193d818560208601611d77565b61194681611daa565b840191505092915050565b600061195c82611cb8565b6119668185611d0a565b9350611976818560208601611d77565b61197f81611daa565b840191505092915050565b6000610140830160008301516119a36000860182611b99565b50602083015184820360208601526119bb8282611951565b915050604083015184820360408601526119d58282611951565b915050606083015184820360608601526119ef8282611951565b91505060808301518482036080860152611a098282611951565b91505060a083015184820360a0860152611a238282611951565b91505060c083015184820360c0860152611a3d8282611951565b91505060e083015184820360e0860152611a578282611951565b915050610100830151848203610100860152611a738282611951565b915050610120830151848203610120860152611a8f8282611951565b9150508091505092915050565b6000610120830160008301518482036000860152611aba8282611951565b91505060208301518482036020860152611ad48282611951565b91505060408301518482036040860152611aee8282611951565b91505060608301518482036060860152611b088282611951565b91505060808301518482036080860152611b228282611951565b91505060a083015184820360a0860152611b3c8282611951565b91505060c083015184820360c0860152611b568282611951565b91505060e083015184820360e0860152611b708282611951565b915050610100830151848203610100860152611b8c8282611951565b9150508091505092915050565b611ba281611d5e565b82525050565b6000602082019050611bbd600083018461181f565b92915050565b60006020820190508181036000830152611bdd818461182e565b905092915050565b60006020820190508181036000830152611bff81846118a3565b905092915050565b60006020820190508181036000830152611c218184611918565b905092915050565b6000604051905081810181811067ffffffffffffffff82111715611c4c57600080fd5b8060405250919050565b600067ffffffffffffffff821115611c6d57600080fd5b601f19601f8301169050602081019050919050565b6000819050602082019050919050565b6000819050602082019050919050565b600081519050919050565b600081519050919050565b600081519050919050565b600081519050919050565b6000602082019050919050565b6000602082019050919050565b600082825260208201905092915050565b600082825260208201905092915050565b600082825260208201905092915050565b600082825260208201905092915050565b6000611d3782611d3e565b9050919050565b600073ffffffffffffffffffffffffffffffffffffffff82169050919050565b6000819050919050565b82818337600083830152505050565b60005b83811015611d95578082015181840152602081019050611d7a565b83811115611da4576000848401525b50505050565b6000601f19601f8301169050919050565b611dc481611d2c565b8114611dcf57600080fd5b50565b611ddb81611d5e565b8114611de657600080fd5b5056fea26469706673582212206d6bf6c52aeac1e07ccf380c0a904771301e70da40f6d1c0dce1042383c6483a64736f6c63430006030033",
  "source": "pragma solidity ^0.6.3;\npragma experimental ABIEncoderV2;\n\n contract  ProductVerification{\n    address public contractOwnerAddress;\n    uint256 product_id_generator;\n\n\n    mapping(address => mapping(uint256 => uint256[]))personal; \n    product[] product_listing;\n\n\n    struct product{\n        uint256 product_id;\n        string product_hash ;\n        string product_uns;\n        string product_name;\n        string weight;\n        string packing_dimension;\n        string expiry_date;\n        string manufacturing_date;\n        string manufacturing_location;\n        string manufacturing_batchid;\n    }\n    \n    struct product_bundle{\n        string product_hash;\n        string product_uns;\n        string product_name;\n        string weight;\n        string packing_dimension;\n        string expiry_date;\n        string manufacturing_date;\n        string manufacturing_location;\n        string manufacturing_batchid;\n    }\n\n    constructor() public{\n        contractOwnerAddress = msg.sender;\n        initiate_ids();\n    }\n\n    function initiate_ids() public{\n        product_id_generator = 0;\n\n    }\n\n    function createproduct(string memory _product_hash, \n                            string memory _product_uns,\n                            string memory _product_name,\n                            string memory _weight,\n                            string memory _packing_dimension,\n                            string memory _expiry_date,\n                            string memory _manufacturing_date,\n                            string memory _manufacturing_location,\n                            string memory _manufacturing_batchid) public {\n            \n            product_listing.push(product(product_id_generator++,\n                                        _product_hash, \n                                        _product_uns,\n                                        _product_name,\n                                        _weight,\n                                        _packing_dimension,\n                                        _expiry_date,\n                                        _manufacturing_date,\n                                        _manufacturing_location,\n                                        _manufacturing_batchid));\n\n            personal[msg.sender][1].push(product_id_generator);\n        }\n\n\n\n\n    function getProducts() public view returns(product_bundle[] memory){\n        product_bundle[] memory temp = new product_bundle[](product_listing.length);\n        for(uint128 i; i < product_listing.length;i++){\n            temp[i] = product_bundle(product_listing[i].product_hash,\n                                        product_listing[i].product_uns,\n                                        product_listing[i].product_name,\n                                        product_listing[i].weight,\n                                        product_listing[i].packing_dimension,\n                                        product_listing[i].expiry_date,\n                                        product_listing[i].manufacturing_date,\n                                        product_listing[i].manufacturing_location,\n                                        product_listing[i].manufacturing_batchid\n                                        );\n        }\n        return temp;\n    }\n\n    function myProducts(address _owner)public view returns(product[] memory){\n        product[] memory temp1 = new product[](personal[_owner][1].length);\n        for(uint128 i=0; i < personal[_owner][1].length ; i++){\n            temp1[i] = product_listing[personal[_owner][1][i]-1];\n        }\n        return temp1;\n    }\n\n    function getProductHash(uint256 _product_id) public view returns(string memory){\n        for(uint128 i; i < product_listing.length ;i++){\n            if(product_listing[i].product_id == _product_id){\n                return product_listing[i].product_hash;\n            }\n        }\n        //return address(0);\n    }\n\n\n }",
  "sourcePath": "/home/user/dev/www/Block-chain/Block_chain_UI_Project/blockchain-asli-check/reactjs_code/contracts/Coin.sol",
  "compiler": {
    "name": "solc",
    "version": "0.6.3+commit.8dda9521.Emscripten.clang"
  },
  "schemaVersion": "3.0.23",
  "updatedAt": "2020-03-21T05:08:16.788Z",
  "networkType": "ethereum",
  "devdoc": {
    "methods": {}
  },
  "userdoc": {
    "methods": {}
  }
}